{"lib/Interest.sol":{"Interest":{"abi":[{"inputs":[{"internalType":"uint256","name":"_principal","type":"uint256"},{"internalType":"uint256","name":"_rate","type":"uint256"},{"internalType":"uint256","name":"_age","type":"uint256"}],"name":"accrueInterest","outputs":[{"internalType":"uint256","name":"","type":"uint256"}],"stateMutability":"pure","type":"function"},{"inputs":[{"internalType":"uint256","name":"_rateWad","type":"uint256"}],"name":"yearlyRateToRay","outputs":[{"internalType":"uint256","name":"","type":"uint256"}],"stateMutability":"pure","type":"function"}],"evm":{"bytecode":{"linkReferences":{},"object":"608060405234801561001057600080fd5b50610645806100206000396000f3fe608060405234801561001057600080fd5b50600436106100365760003560e01c8063060614cb1461003b578063de251fb61461006b575b600080fd5b61005560048036038101906100509190610346565b61009b565b6040516100629190610382565b60405180910390f35b6100856004803603810190610080919061039d565b6100db565b6040516100929190610382565b60405180910390f35b60006100d46100b1670de0b6b3a76400006100f9565b6100cf6100bd856100f9565b6100ca6301e13380610110565b61012f565b61016f565b9050919050565b60006100f0846100eb85856101c8565b610252565b90509392505050565b600061010982633b9aca0061029e565b9050919050565b6000610128826b033b2e3c9fd0803ce800000061029e565b9050919050565b60008161015d61014b856b033b2e3c9fd0803ce800000061029e565b600285610158919061044e565b61016f565b610167919061044e565b905092915050565b600082828461017e919061047f565b91508110156101c2576040517f08c379a00000000000000000000000000000000000000000000000000000000081526004016101b990610510565b60405180910390fd5b92915050565b6000806002836101d89190610530565b036101ef576b033b2e3c9fd0803ce80000006101f1565b825b9050600282610200919061044e565b91505b6000821461024c576102158384610252565b925060006002836102269190610530565b14610238576102358184610252565b90505b600282610245919061044e565b9150610203565b92915050565b60006b033b2e3c9fd0803ce800000061028c61026e858561029e565b60026b033b2e3c9fd0803ce8000000610287919061044e565b61016f565b610296919061044e565b905092915050565b6000808214806102c65750828283856102b79190610561565b9250826102c4919061044e565b145b610305576040517f08c379a00000000000000000000000000000000000000000000000000000000081526004016102fc906105ef565b60405180910390fd5b92915050565b600080fd5b6000819050919050565b61032381610310565b811461032e57600080fd5b50565b6000813590506103408161031a565b92915050565b60006020828403121561035c5761035b61030b565b5b600061036a84828501610331565b91505092915050565b61037c81610310565b82525050565b60006020820190506103976000830184610373565b92915050565b6000806000606084860312156103b6576103b561030b565b5b60006103c486828701610331565b93505060206103d586828701610331565b92505060406103e686828701610331565b9150509250925092565b7f4e487b7100000000000000000000000000000000000000000000000000000000600052601260045260246000fd5b7f4e487b7100000000000000000000000000000000000000000000000000000000600052601160045260246000fd5b600061045982610310565b915061046483610310565b925082610474576104736103f0565b5b828204905092915050565b600061048a82610310565b915061049583610310565b92508282019050808211156104ad576104ac61041f565b5b92915050565b600082825260208201905092915050565b7f64732d6d6174682d6164642d6f766572666c6f77000000000000000000000000600082015250565b60006104fa6014836104b3565b9150610505826104c4565b602082019050919050565b60006020820190508181036000830152610529816104ed565b9050919050565b600061053b82610310565b915061054683610310565b925082610556576105556103f0565b5b828206905092915050565b600061056c82610310565b915061057783610310565b925082820261058581610310565b9150828204841483151761059c5761059b61041f565b5b5092915050565b7f64732d6d6174682d6d756c2d6f766572666c6f77000000000000000000000000600082015250565b60006105d96014836104b3565b91506105e4826105a3565b602082019050919050565b60006020820190508181036000830152610608816105cc565b905091905056fea26469706673582212208cf07369043e1f9546f616dec2283f9f1dccde60c54ad982555a0a47f427d58e64736f6c63430008110033","opcodes":"PUSH1 0x80 PUSH1 0x40 MSTORE CALLVALUE DUP1 ISZERO PUSH2 0x10 JUMPI PUSH1 0x0 DUP1 REVERT JUMPDEST POP PUSH2 0x645 DUP1 PUSH2 0x20 PUSH1 0x0 CODECOPY PUSH1 0x0 RETURN INVALID PUSH1 0x80 PUSH1 0x40 MSTORE CALLVALUE DUP1 ISZERO PUSH2 0x10 JUMPI PUSH1 0x0 DUP1 REVERT JUMPDEST POP PUSH1 0x4 CALLDATASIZE LT PUSH2 0x36 JUMPI PUSH1 0x0 CALLDATALOAD PUSH1 0xE0 SHR DUP1 PUSH4 0x60614CB EQ PUSH2 0x3B JUMPI DUP1 PUSH4 0xDE251FB6 EQ PUSH2 0x6B JUMPI JUMPDEST PUSH1 0x0 DUP1 REVERT JUMPDEST PUSH2 0x55 PUSH1 0x4 DUP1 CALLDATASIZE SUB DUP2 ADD SWAP1 PUSH2 0x50 SWAP2 SWAP1 PUSH2 0x346 JUMP JUMPDEST PUSH2 0x9B JUMP JUMPDEST PUSH1 0x40 MLOAD PUSH2 0x62 SWAP2 SWAP1 PUSH2 0x382 JUMP JUMPDEST PUSH1 0x40 MLOAD DUP1 SWAP2 SUB SWAP1 RETURN JUMPDEST PUSH2 0x85 PUSH1 0x4 DUP1 CALLDATASIZE SUB DUP2 ADD SWAP1 PUSH2 0x80 SWAP2 SWAP1 PUSH2 0x39D JUMP JUMPDEST PUSH2 0xDB JUMP JUMPDEST PUSH1 0x40 MLOAD PUSH2 0x92 SWAP2 SWAP1 PUSH2 0x382 JUMP JUMPDEST PUSH1 0x40 MLOAD DUP1 SWAP2 SUB SWAP1 RETURN JUMPDEST PUSH1 0x0 PUSH2 0xD4 PUSH2 0xB1 PUSH8 0xDE0B6B3A7640000 PUSH2 0xF9 JUMP JUMPDEST PUSH2 0xCF PUSH2 0xBD DUP6 PUSH2 0xF9 JUMP JUMPDEST PUSH2 0xCA PUSH4 0x1E13380 PUSH2 0x110 JUMP JUMPDEST PUSH2 0x12F JUMP JUMPDEST PUSH2 0x16F JUMP JUMPDEST SWAP1 POP SWAP2 SWAP1 POP JUMP JUMPDEST PUSH1 0x0 PUSH2 0xF0 DUP5 PUSH2 0xEB DUP6 DUP6 PUSH2 0x1C8 JUMP JUMPDEST PUSH2 0x252 JUMP JUMPDEST SWAP1 POP SWAP4 SWAP3 POP POP POP JUMP JUMPDEST PUSH1 0x0 PUSH2 0x109 DUP3 PUSH4 0x3B9ACA00 PUSH2 0x29E JUMP JUMPDEST SWAP1 POP SWAP2 SWAP1 POP JUMP JUMPDEST PUSH1 0x0 PUSH2 0x128 DUP3 PUSH12 0x33B2E3C9FD0803CE8000000 PUSH2 0x29E JUMP JUMPDEST SWAP1 POP SWAP2 SWAP1 POP JUMP JUMPDEST PUSH1 0x0 DUP2 PUSH2 0x15D PUSH2 0x14B DUP6 PUSH12 0x33B2E3C9FD0803CE8000000 PUSH2 0x29E JUMP JUMPDEST PUSH1 0x2 DUP6 PUSH2 0x158 SWAP2 SWAP1 PUSH2 0x44E JUMP JUMPDEST PUSH2 0x16F JUMP JUMPDEST PUSH2 0x167 SWAP2 SWAP1 PUSH2 0x44E JUMP JUMPDEST SWAP1 POP SWAP3 SWAP2 POP POP JUMP JUMPDEST PUSH1 0x0 DUP3 DUP3 DUP5 PUSH2 0x17E SWAP2 SWAP1 PUSH2 0x47F JUMP JUMPDEST SWAP2 POP DUP2 LT ISZERO PUSH2 0x1C2 JUMPI PUSH1 0x40 MLOAD PUSH32 0x8C379A000000000000000000000000000000000000000000000000000000000 DUP2 MSTORE PUSH1 0x4 ADD PUSH2 0x1B9 SWAP1 PUSH2 0x510 JUMP JUMPDEST PUSH1 0x40 MLOAD DUP1 SWAP2 SUB SWAP1 REVERT JUMPDEST SWAP3 SWAP2 POP POP JUMP JUMPDEST PUSH1 0x0 DUP1 PUSH1 0x2 DUP4 PUSH2 0x1D8 SWAP2 SWAP1 PUSH2 0x530 JUMP JUMPDEST SUB PUSH2 0x1EF JUMPI PUSH12 0x33B2E3C9FD0803CE8000000 PUSH2 0x1F1 JUMP JUMPDEST DUP3 JUMPDEST SWAP1 POP PUSH1 0x2 DUP3 PUSH2 0x200 SWAP2 SWAP1 PUSH2 0x44E JUMP JUMPDEST SWAP2 POP JUMPDEST PUSH1 0x0 DUP3 EQ PUSH2 0x24C JUMPI PUSH2 0x215 DUP4 DUP5 PUSH2 0x252 JUMP JUMPDEST SWAP3 POP PUSH1 0x0 PUSH1 0x2 DUP4 PUSH2 0x226 SWAP2 SWAP1 PUSH2 0x530 JUMP JUMPDEST EQ PUSH2 0x238 JUMPI PUSH2 0x235 DUP2 DUP5 PUSH2 0x252 JUMP JUMPDEST SWAP1 POP JUMPDEST PUSH1 0x2 DUP3 PUSH2 0x245 SWAP2 SWAP1 PUSH2 0x44E JUMP JUMPDEST SWAP2 POP PUSH2 0x203 JUMP JUMPDEST SWAP3 SWAP2 POP POP JUMP JUMPDEST PUSH1 0x0 PUSH12 0x33B2E3C9FD0803CE8000000 PUSH2 0x28C PUSH2 0x26E DUP6 DUP6 PUSH2 0x29E JUMP JUMPDEST PUSH1 0x2 PUSH12 0x33B2E3C9FD0803CE8000000 PUSH2 0x287 SWAP2 SWAP1 PUSH2 0x44E JUMP JUMPDEST PUSH2 0x16F JUMP JUMPDEST PUSH2 0x296 SWAP2 SWAP1 PUSH2 0x44E JUMP JUMPDEST SWAP1 POP SWAP3 SWAP2 POP POP JUMP JUMPDEST PUSH1 0x0 DUP1 DUP3 EQ DUP1 PUSH2 0x2C6 JUMPI POP DUP3 DUP3 DUP4 DUP6 PUSH2 0x2B7 SWAP2 SWAP1 PUSH2 0x561 JUMP JUMPDEST SWAP3 POP DUP3 PUSH2 0x2C4 SWAP2 SWAP1 PUSH2 0x44E JUMP JUMPDEST EQ JUMPDEST PUSH2 0x305 JUMPI PUSH1 0x40 MLOAD PUSH32 0x8C379A000000000000000000000000000000000000000000000000000000000 DUP2 MSTORE PUSH1 0x4 ADD PUSH2 0x2FC SWAP1 PUSH2 0x5EF JUMP JUMPDEST PUSH1 0x40 MLOAD DUP1 SWAP2 SUB SWAP1 REVERT JUMPDEST SWAP3 SWAP2 POP POP JUMP JUMPDEST PUSH1 0x0 DUP1 REVERT JUMPDEST PUSH1 0x0 DUP2 SWAP1 POP SWAP2 SWAP1 POP JUMP JUMPDEST PUSH2 0x323 DUP2 PUSH2 0x310 JUMP JUMPDEST DUP2 EQ PUSH2 0x32E JUMPI PUSH1 0x0 DUP1 REVERT JUMPDEST POP JUMP JUMPDEST PUSH1 0x0 DUP2 CALLDATALOAD SWAP1 POP PUSH2 0x340 DUP2 PUSH2 0x31A JUMP JUMPDEST SWAP3 SWAP2 POP POP JUMP JUMPDEST PUSH1 0x0 PUSH1 0x20 DUP3 DUP5 SUB SLT ISZERO PUSH2 0x35C JUMPI PUSH2 0x35B PUSH2 0x30B JUMP JUMPDEST JUMPDEST PUSH1 0x0 PUSH2 0x36A DUP5 DUP3 DUP6 ADD PUSH2 0x331 JUMP JUMPDEST SWAP2 POP POP SWAP3 SWAP2 POP POP JUMP JUMPDEST PUSH2 0x37C DUP2 PUSH2 0x310 JUMP JUMPDEST DUP3 MSTORE POP POP JUMP JUMPDEST PUSH1 0x0 PUSH1 0x20 DUP3 ADD SWAP1 POP PUSH2 0x397 PUSH1 0x0 DUP4 ADD DUP5 PUSH2 0x373 JUMP JUMPDEST SWAP3 SWAP2 POP POP JUMP JUMPDEST PUSH1 0x0 DUP1 PUSH1 0x0 PUSH1 0x60 DUP5 DUP7 SUB SLT ISZERO PUSH2 0x3B6 JUMPI PUSH2 0x3B5 PUSH2 0x30B JUMP JUMPDEST JUMPDEST PUSH1 0x0 PUSH2 0x3C4 DUP7 DUP3 DUP8 ADD PUSH2 0x331 JUMP JUMPDEST SWAP4 POP POP PUSH1 0x20 PUSH2 0x3D5 DUP7 DUP3 DUP8 ADD PUSH2 0x331 JUMP JUMPDEST SWAP3 POP POP PUSH1 0x40 PUSH2 0x3E6 DUP7 DUP3 DUP8 ADD PUSH2 0x331 JUMP JUMPDEST SWAP2 POP POP SWAP3 POP SWAP3 POP SWAP3 JUMP JUMPDEST PUSH32 0x4E487B7100000000000000000000000000000000000000000000000000000000 PUSH1 0x0 MSTORE PUSH1 0x12 PUSH1 0x4 MSTORE PUSH1 0x24 PUSH1 0x0 REVERT JUMPDEST PUSH32 0x4E487B7100000000000000000000000000000000000000000000000000000000 PUSH1 0x0 MSTORE PUSH1 0x11 PUSH1 0x4 MSTORE PUSH1 0x24 PUSH1 0x0 REVERT JUMPDEST PUSH1 0x0 PUSH2 0x459 DUP3 PUSH2 0x310 JUMP JUMPDEST SWAP2 POP PUSH2 0x464 DUP4 PUSH2 0x310 JUMP JUMPDEST SWAP3 POP DUP3 PUSH2 0x474 JUMPI PUSH2 0x473 PUSH2 0x3F0 JUMP JUMPDEST JUMPDEST DUP3 DUP3 DIV SWAP1 POP SWAP3 SWAP2 POP POP JUMP JUMPDEST PUSH1 0x0 PUSH2 0x48A DUP3 PUSH2 0x310 JUMP JUMPDEST SWAP2 POP PUSH2 0x495 DUP4 PUSH2 0x310 JUMP JUMPDEST SWAP3 POP DUP3 DUP3 ADD SWAP1 POP DUP1 DUP3 GT ISZERO PUSH2 0x4AD JUMPI PUSH2 0x4AC PUSH2 0x41F JUMP JUMPDEST JUMPDEST SWAP3 SWAP2 POP POP JUMP JUMPDEST PUSH1 0x0 DUP3 DUP3 MSTORE PUSH1 0x20 DUP3 ADD SWAP1 POP SWAP3 SWAP2 POP POP JUMP JUMPDEST PUSH32 0x64732D6D6174682D6164642D6F766572666C6F77000000000000000000000000 PUSH1 0x0 DUP3 ADD MSTORE POP JUMP JUMPDEST PUSH1 0x0 PUSH2 0x4FA PUSH1 0x14 DUP4 PUSH2 0x4B3 JUMP JUMPDEST SWAP2 POP PUSH2 0x505 DUP3 PUSH2 0x4C4 JUMP JUMPDEST PUSH1 0x20 DUP3 ADD SWAP1 POP SWAP2 SWAP1 POP JUMP JUMPDEST PUSH1 0x0 PUSH1 0x20 DUP3 ADD SWAP1 POP DUP2 DUP2 SUB PUSH1 0x0 DUP4 ADD MSTORE PUSH2 0x529 DUP2 PUSH2 0x4ED JUMP JUMPDEST SWAP1 POP SWAP2 SWAP1 POP JUMP JUMPDEST PUSH1 0x0 PUSH2 0x53B DUP3 PUSH2 0x310 JUMP JUMPDEST SWAP2 POP PUSH2 0x546 DUP4 PUSH2 0x310 JUMP JUMPDEST SWAP3 POP DUP3 PUSH2 0x556 JUMPI PUSH2 0x555 PUSH2 0x3F0 JUMP JUMPDEST JUMPDEST DUP3 DUP3 MOD SWAP1 POP SWAP3 SWAP2 POP POP JUMP JUMPDEST PUSH1 0x0 PUSH2 0x56C DUP3 PUSH2 0x310 JUMP JUMPDEST SWAP2 POP PUSH2 0x577 DUP4 PUSH2 0x310 JUMP JUMPDEST SWAP3 POP DUP3 DUP3 MUL PUSH2 0x585 DUP2 PUSH2 0x310 JUMP JUMPDEST SWAP2 POP DUP3 DUP3 DIV DUP5 EQ DUP4 ISZERO OR PUSH2 0x59C JUMPI PUSH2 0x59B PUSH2 0x41F JUMP JUMPDEST JUMPDEST POP SWAP3 SWAP2 POP POP JUMP JUMPDEST PUSH32 0x64732D6D6174682D6D756C2D6F766572666C6F77000000000000000000000000 PUSH1 0x0 DUP3 ADD MSTORE POP JUMP JUMPDEST PUSH1 0x0 PUSH2 0x5D9 PUSH1 0x14 DUP4 PUSH2 0x4B3 JUMP JUMPDEST SWAP2 POP PUSH2 0x5E4 DUP3 PUSH2 0x5A3 JUMP JUMPDEST PUSH1 0x20 DUP3 ADD SWAP1 POP SWAP2 SWAP1 POP JUMP JUMPDEST PUSH1 0x0 PUSH1 0x20 DUP3 ADD SWAP1 POP DUP2 DUP2 SUB PUSH1 0x0 DUP4 ADD MSTORE PUSH2 0x608 DUP2 PUSH2 0x5CC JUMP JUMPDEST SWAP1 POP SWAP2 SWAP1 POP JUMP INVALID LOG2 PUSH5 0x6970667358 0x22 SLT KECCAK256 DUP13 CREATE PUSH20 0x69043E1F9546F616DEC2283F9F1DCCDE60C54AD9 DUP3 SSTORE GAS EXP SELFBALANCE DELEGATECALL 0x27 0xD5 DUP15 PUSH5 0x736F6C6343 STOP ADDMOD GT STOP CALLER "},"methodIdentifiers":{"accrueInterest(uint256,uint256,uint256)":"de251fb6","yearlyRateToRay(uint256)":"060614cb"}}}}}