{"contracts/Staker.sol":{"Staker":{"abi":[{"anonymous":false,"inputs":[{"indexed":false,"internalType":"address","name":"","type":"address"},{"indexed":false,"internalType":"uint256","name":"","type":"uint256"}],"name":"Received","type":"event"},{"anonymous":false,"inputs":[{"indexed":true,"internalType":"address","name":"sender","type":"address"},{"indexed":false,"internalType":"uint256","name":"amount","type":"uint256"}],"name":"Stake","type":"event"},{"inputs":[{"internalType":"address","name":"_depositor","type":"address"}],"name":"CalculateInterest","outputs":[{"internalType":"uint256","name":"","type":"uint256"}],"stateMutability":"nonpayable","type":"function"},{"inputs":[{"internalType":"address","name":"","type":"address"}],"name":"ContrctdepositTimestamps","outputs":[{"internalType":"uint256","name":"","type":"uint256"}],"stateMutability":"view","type":"function"},{"inputs":[{"internalType":"address","name":"","type":"address"}],"name":"InterestSet","outputs":[{"internalType":"bool","name":"","type":"bool"}],"stateMutability":"view","type":"function"},{"inputs":[{"internalType":"address","name":"","type":"address"}],"name":"balances","outputs":[{"internalType":"uint256","name":"","type":"uint256"}],"stateMutability":"view","type":"function"},{"inputs":[],"name":"checkInterestMapping","outputs":[{"internalType":"bool","name":"","type":"bool"}],"stateMutability":"view","type":"function"},{"inputs":[{"internalType":"address","name":"_depositor","type":"address"}],"name":"checkInterestValue","outputs":[{"internalType":"uint256","name":"","type":"uint256"}],"stateMutability":"view","type":"function"},{"inputs":[],"name":"checkdepositTimestamps","outputs":[{"internalType":"uint256","name":"","type":"uint256"}],"stateMutability":"view","type":"function"},{"inputs":[],"name":"claimFor3Month","outputs":[{"internalType":"uint256","name":"","type":"uint256"}],"stateMutability":"view","type":"function"},{"inputs":[{"internalType":"address","name":"","type":"address"}],"name":"contractBalances","outputs":[{"internalType":"uint256","name":"","type":"uint256"}],"stateMutability":"view","type":"function"},{"inputs":[{"internalType":"address","name":"","type":"address"},{"internalType":"address","name":"","type":"address"}],"name":"escrowTx","outputs":[{"internalType":"address","name":"","type":"address"}],"stateMutability":"view","type":"function"},{"inputs":[{"internalType":"address","name":"_depositor","type":"address"},{"internalType":"address","name":"_arbiter","type":"address"},{"internalType":"address","name":"_beneficiary","type":"address"},{"internalType":"bool","name":"_isWithinterest","type":"bool"}],"name":"ethStake","outputs":[{"internalType":"bool","name":"","type":"bool"}],"stateMutability":"payable","type":"function"},{"inputs":[{"internalType":"address","name":"","type":"address"}],"name":"interestValue","outputs":[{"internalType":"uint256","name":"","type":"uint256"}],"stateMutability":"view","type":"function"},{"inputs":[{"internalType":"address","name":"_depositor","type":"address"},{"internalType":"address","name":"_arbiter","type":"address"}],"name":"withDrawal","outputs":[],"stateMutability":"nonpayable","type":"function"},{"stateMutability":"payable","type":"receive"}],"evm":{"bytecode":{"linkReferences":{},"object":"6080604052626ebe0060065534801561001757600080fd5b5061207d806100276000396000f3fe6080604052600436106100c65760003560e01c80635a6a18e11161007f5780636438645b116100595780636438645b146102eb5780639338671814610328578063a205b12f14610365578063cc170c94146103a257610106565b80635a6a18e1146102415780635f88746c14610271578063620b7cb3146102ae57610106565b806327e235e31461010b5780632acba4ab1461014857806330853c62146101855780633a420c1d146101c25780633ad0bc06146101eb5780634bbf90371461021657610106565b36610106577f88a5966d370b9919b20f3e2c13ff65706f196a4e32cc2c12bf57088f8852587433346040516100fc92919061124f565b60405180910390a1005b600080fd5b34801561011757600080fd5b50610132600480360381019061012d91906112a9565b6103cd565b60405161013f91906112d6565b60405180910390f35b34801561015457600080fd5b5061016f600480360381019061016a91906112a9565b6103e5565b60405161017c91906112d6565b60405180910390f35b34801561019157600080fd5b506101ac60048036038101906101a791906112a9565b61060f565b6040516101b9919061130c565b60405180910390f35b3480156101ce57600080fd5b506101e960048036038101906101e49190611327565b61062f565b005b3480156101f757600080fd5b50610200610ce1565b60405161020d91906112d6565b60405180910390f35b34801561022257600080fd5b5061022b610d28565b604051610238919061130c565b60405180910390f35b61025b60048036038101906102569190611393565b610e00565b604051610268919061130c565b60405180910390f35b34801561027d57600080fd5b50610298600480360381019061029391906112a9565b610f30565b6040516102a591906112d6565b60405180910390f35b3480156102ba57600080fd5b506102d560048036038101906102d091906112a9565b610f48565b6040516102e291906112d6565b60405180910390f35b3480156102f757600080fd5b50610312600480360381019061030d91906112a9565b610f60565b60405161031f91906112d6565b60405180910390f35b34801561033457600080fd5b5061034f600480360381019061034a9190611327565b610f78565b60405161035c91906113fa565b60405180910390f35b34801561037157600080fd5b5061038c600480360381019061038791906112a9565b610fba565b60405161039991906112d6565b60405180910390f35b3480156103ae57600080fd5b506103b7611003565b6040516103c491906112d6565b60405180910390f35b60046020528060005260406000206000915090505481565b6000806040516103f4906111e8565b604051809103906000f080158015610410573d6000803e3d6000fd5b5090506000600560003373ffffffffffffffffffffffffffffffffffffffff1673ffffffffffffffffffffffffffffffffffffffff16815260200190815260200160002054905060008273ffffffffffffffffffffffffffffffffffffffff1663060614cb670429d069189e00006040518263ffffffff1660e01b815260040161049a919061145a565b602060405180830381865afa1580156104b7573d6000803e3d6000fd5b505050506040513d601f19601f820116820180604052508101906104db91906114a1565b90506000600160003373ffffffffffffffffffffffffffffffffffffffff1673ffffffffffffffffffffffffffffffffffffffff168152602001908152602001600020544261052a91906114fd565b90508373ffffffffffffffffffffffffffffffffffffffff1663de251fb68484846040518463ffffffff1660e01b815260040161056993929190611531565b602060405180830381865afa158015610586573d6000803e3d6000fd5b505050506040513d601f19601f820116820180604052508101906105aa91906114a1565b600081905550826000546105be91906114fd565b600760008873ffffffffffffffffffffffffffffffffffffffff1673ffffffffffffffffffffffffffffffffffffffff16815260200190815260200160002081905550600054945050505050919050565b60026020528060005260406000206000915054906101000a900460ff1681565b3381600073ffffffffffffffffffffffffffffffffffffffff16600360008473ffffffffffffffffffffffffffffffffffffffff1673ffffffffffffffffffffffffffffffffffffffff16815260200190815260200160002060008373ffffffffffffffffffffffffffffffffffffffff1673ffffffffffffffffffffffffffffffffffffffff16815260200190815260200160002060009054906101000a900473ffffffffffffffffffffffffffffffffffffffff1673ffffffffffffffffffffffffffffffffffffffff160361073c576040517f08c379a0000000000000000000000000000000000000000000000000000000008152600401610733906115c5565b60405180910390fd5b6000600560003373ffffffffffffffffffffffffffffffffffffffff1673ffffffffffffffffffffffffffffffffffffffff16815260200190815260200160002054116107be576040517f08c379a00000000000000000000000000000000000000000000000000000000081526004016107b590611631565b60405180910390fd5b6000600560003373ffffffffffffffffffffffffffffffffffffffff1673ffffffffffffffffffffffffffffffffffffffff168152602001908152602001600020549050600260008673ffffffffffffffffffffffffffffffffffffffff1673ffffffffffffffffffffffffffffffffffffffff16815260200190815260200160002060009054906101000a900460ff1615610b8157600654600160003373ffffffffffffffffffffffffffffffffffffffff1673ffffffffffffffffffffffffffffffffffffffff168152602001908152602001600020546108a19190611651565b4210156108e3576040517f08c379a00000000000000000000000000000000000000000000000000000000081526004016108da906116d1565b60405180910390fd5b60006108ee866103e5565b90506000600560003373ffffffffffffffffffffffffffffffffffffffff1673ffffffffffffffffffffffffffffffffffffffff168152602001908152602001600020819055506000600360003373ffffffffffffffffffffffffffffffffffffffff1673ffffffffffffffffffffffffffffffffffffffff16815260200190815260200160002060008773ffffffffffffffffffffffffffffffffffffffff1673ffffffffffffffffffffffffffffffffffffffff16815260200190815260200160002060009054906101000a900473ffffffffffffffffffffffffffffffffffffffff1673ffffffffffffffffffffffffffffffffffffffff16836040516109f790611722565b60006040518083038185875af1925050503d8060008114610a34576040519150601f19603f3d011682016040523d82523d6000602084013e610a39565b606091505b5050905080610a7d576040517f08c379a0000000000000000000000000000000000000000000000000000000008152600401610a74906117a9565b60405180910390fd5b60008383610a8b91906114fd565b9050610acc6040518060400160405280600f81526020017f496e7465726573742076616c75653a000000000000000000000000000000000081525082611009565b60008873ffffffffffffffffffffffffffffffffffffffff1682604051610af290611722565b60006040518083038185875af1925050503d8060008114610b2f576040519150601f19603f3d011682016040523d82523d6000602084013e610b34565b606091505b5050905080610b78576040517f08c379a0000000000000000000000000000000000000000000000000000000008152600401610b6f9061183b565b60405180910390fd5b50505050610cda565b6000600560003373ffffffffffffffffffffffffffffffffffffffff1673ffffffffffffffffffffffffffffffffffffffff168152602001908152602001600020819055506000600360003373ffffffffffffffffffffffffffffffffffffffff1673ffffffffffffffffffffffffffffffffffffffff16815260200190815260200160002060008673ffffffffffffffffffffffffffffffffffffffff1673ffffffffffffffffffffffffffffffffffffffff16815260200190815260200160002060009054906101000a900473ffffffffffffffffffffffffffffffffffffffff1673ffffffffffffffffffffffffffffffffffffffff1682604051610c8890611722565b60006040518083038185875af1925050503d8060008114610cc5576040519150601f19603f3d011682016040523d82523d6000602084013e610cca565b606091505b5050905080610cd857600080fd5b505b5050505050565b6000600160003073ffffffffffffffffffffffffffffffffffffffff1673ffffffffffffffffffffffffffffffffffffffff16815260200190815260200160002054905090565b6000336000600160008373ffffffffffffffffffffffffffffffffffffffff1673ffffffffffffffffffffffffffffffffffffffff1681526020019081526020016000205403610dad576040517f08c379a0000000000000000000000000000000000000000000000000000000008152600401610da4906118a7565b60405180910390fd5b600260003373ffffffffffffffffffffffffffffffffffffffff1673ffffffffffffffffffffffffffffffffffffffff16815260200190815260200160002060009054906101000a900460ff1691505090565b6000803411610e44576040517f08c379a0000000000000000000000000000000000000000000000000000000008152600401610e3b90611913565b60405180910390fd5b42600160003373ffffffffffffffffffffffffffffffffffffffff1673ffffffffffffffffffffffffffffffffffffffff1681526020019081526020016000208190555034600460008773ffffffffffffffffffffffffffffffffffffffff1673ffffffffffffffffffffffffffffffffffffffff1681526020019081526020016000208190555034600560003373ffffffffffffffffffffffffffffffffffffffff1673ffffffffffffffffffffffffffffffffffffffff16815260200190815260200160002081905550610f1a84846110a5565b610f248583611164565b60019050949350505050565b60016020528060005260406000206000915090505481565b60056020528060005260406000206000915090505481565b60076020528060005260406000206000915090505481565b60036020528160005260406000206020528060005260406000206000915091509054906101000a900473ffffffffffffffffffffffffffffffffffffffff1681565b6000600760008373ffffffffffffffffffffffffffffffffffffffff1673ffffffffffffffffffffffffffffffffffffffff168152602001908152602001600020549050919050565b60065481565b6110a1828260405160240161101f9291906119b2565b6040516020818303038152906040527fb60e72cc000000000000000000000000000000000000000000000000000000007bffffffffffffffffffffffffffffffffffffffffffffffffffffffff19166020820180517bffffffffffffffffffffffffffffffffffffffffffffffffffffffff83818316178352505050506111bf565b5050565b80600360003373ffffffffffffffffffffffffffffffffffffffff1673ffffffffffffffffffffffffffffffffffffffff16815260200190815260200160002060008473ffffffffffffffffffffffffffffffffffffffff1673ffffffffffffffffffffffffffffffffffffffff16815260200190815260200160002060006101000a81548173ffffffffffffffffffffffffffffffffffffffff021916908373ffffffffffffffffffffffffffffffffffffffff1602179055505050565b80600260008473ffffffffffffffffffffffffffffffffffffffff1673ffffffffffffffffffffffffffffffffffffffff16815260200190815260200160002060006101000a81548160ff0219169083151502179055505050565b60008151905060006a636f6e736f6c652e6c6f679050602083016000808483855afa5050505050565b610665806119e383390190565b600073ffffffffffffffffffffffffffffffffffffffff82169050919050565b6000611220826111f5565b9050919050565b61123081611215565b82525050565b6000819050919050565b61124981611236565b82525050565b60006040820190506112646000830185611227565b6112716020830184611240565b9392505050565b600080fd5b61128681611215565b811461129157600080fd5b50565b6000813590506112a38161127d565b92915050565b6000602082840312156112bf576112be611278565b5b60006112cd84828501611294565b91505092915050565b60006020820190506112eb6000830184611240565b92915050565b60008115159050919050565b611306816112f1565b82525050565b600060208201905061132160008301846112fd565b92915050565b6000806040838503121561133e5761133d611278565b5b600061134c85828601611294565b925050602061135d85828601611294565b9150509250929050565b611370816112f1565b811461137b57600080fd5b50565b60008135905061138d81611367565b92915050565b600080600080608085870312156113ad576113ac611278565b5b60006113bb87828801611294565b94505060206113cc87828801611294565b93505060406113dd87828801611294565b92505060606113ee8782880161137e565b91505092959194509250565b600060208201905061140f6000830184611227565b92915050565b6000819050919050565b6000819050919050565b600061144461143f61143a84611415565b61141f565b611236565b9050919050565b61145481611429565b82525050565b600060208201905061146f600083018461144b565b92915050565b61147e81611236565b811461148957600080fd5b50565b60008151905061149b81611475565b92915050565b6000602082840312156114b7576114b6611278565b5b60006114c58482850161148c565b91505092915050565b7f4e487b7100000000000000000000000000000000000000000000000000000000600052601160045260246000fd5b600061150882611236565b915061151383611236565b925082820390508181111561152b5761152a6114ce565b5b92915050565b60006060820190506115466000830186611240565b6115536020830185611240565b6115606040830184611240565b949350505050565b600082825260208201905092915050565b7f596f752772206e6f742074686520617262697465722100000000000000000000600082015250565b60006115af601683611568565b91506115ba82611579565b602082019050919050565b600060208201905081810360008301526115de816115a2565b9050919050565b7f436f6e74726163742042616c616e636520697320302100000000000000000000600082015250565b600061161b601683611568565b9150611626826115e5565b602082019050919050565b6000602082019050818103600083015261164a8161160e565b9050919050565b600061165c82611236565b915061166783611236565b925082820190508082111561167f5761167e6114ce565b5b92915050565b7f436c61696d2074696d65206e6f74207265616368656420796574210000000000600082015250565b60006116bb601b83611568565b91506116c682611685565b602082019050919050565b600060208201905081810360008301526116ea816116ae565b9050919050565b600081905092915050565b50565b600061170c6000836116f1565b9150611717826116fc565b600082019050919050565b600061172d826116ff565b9150819050919050565b7f42656e6566696369617279206261736520666565207472616e73616374696f6e60008201527f206661696c656421000000000000000000000000000000000000000000000000602082015250565b6000611793602883611568565b915061179e82611737565b604082019050919050565b600060208201905081810360008301526117c281611786565b9050919050565b7f4465706c6f79657220696e746572657374207472616e73616374696f6e20666160008201527f696c656421000000000000000000000000000000000000000000000000000000602082015250565b6000611825602583611568565b9150611830826117c9565b604082019050919050565b6000602082019050818103600083015261185481611818565b9050919050565b7f596f752772206e6f7420746865206465706c6f79657221000000000000000000600082015250565b6000611891601783611568565b915061189c8261185b565b602082019050919050565b600060208201905081810360008301526118c081611884565b9050919050565b7f596f75206e65656420746f207374616b65206574682100000000000000000000600082015250565b60006118fd601683611568565b9150611908826118c7565b602082019050919050565b6000602082019050818103600083015261192c816118f0565b9050919050565b600081519050919050565b60005b8381101561195c578082015181840152602081019050611941565b60008484015250505050565b6000601f19601f8301169050919050565b600061198482611933565b61198e8185611568565b935061199e81856020860161193e565b6119a781611968565b840191505092915050565b600060408201905081810360008301526119cc8185611979565b90506119db6020830184611240565b939250505056fe608060405234801561001057600080fd5b50610645806100206000396000f3fe608060405234801561001057600080fd5b50600436106100365760003560e01c8063060614cb1461003b578063de251fb61461006b575b600080fd5b61005560048036038101906100509190610346565b61009b565b6040516100629190610382565b60405180910390f35b6100856004803603810190610080919061039d565b6100db565b6040516100929190610382565b60405180910390f35b60006100d46100b1670de0b6b3a76400006100f9565b6100cf6100bd856100f9565b6100ca6301e13380610110565b61012f565b61016f565b9050919050565b60006100f0846100eb85856101c8565b610252565b90509392505050565b600061010982633b9aca0061029e565b9050919050565b6000610128826b033b2e3c9fd0803ce800000061029e565b9050919050565b60008161015d61014b856b033b2e3c9fd0803ce800000061029e565b600285610158919061044e565b61016f565b610167919061044e565b905092915050565b600082828461017e919061047f565b91508110156101c2576040517f08c379a00000000000000000000000000000000000000000000000000000000081526004016101b990610510565b60405180910390fd5b92915050565b6000806002836101d89190610530565b036101ef576b033b2e3c9fd0803ce80000006101f1565b825b9050600282610200919061044e565b91505b6000821461024c576102158384610252565b925060006002836102269190610530565b14610238576102358184610252565b90505b600282610245919061044e565b9150610203565b92915050565b60006b033b2e3c9fd0803ce800000061028c61026e858561029e565b60026b033b2e3c9fd0803ce8000000610287919061044e565b61016f565b610296919061044e565b905092915050565b6000808214806102c65750828283856102b79190610561565b9250826102c4919061044e565b145b610305576040517f08c379a00000000000000000000000000000000000000000000000000000000081526004016102fc906105ef565b60405180910390fd5b92915050565b600080fd5b6000819050919050565b61032381610310565b811461032e57600080fd5b50565b6000813590506103408161031a565b92915050565b60006020828403121561035c5761035b61030b565b5b600061036a84828501610331565b91505092915050565b61037c81610310565b82525050565b60006020820190506103976000830184610373565b92915050565b6000806000606084860312156103b6576103b561030b565b5b60006103c486828701610331565b93505060206103d586828701610331565b92505060406103e686828701610331565b9150509250925092565b7f4e487b7100000000000000000000000000000000000000000000000000000000600052601260045260246000fd5b7f4e487b7100000000000000000000000000000000000000000000000000000000600052601160045260246000fd5b600061045982610310565b915061046483610310565b925082610474576104736103f0565b5b828204905092915050565b600061048a82610310565b915061049583610310565b92508282019050808211156104ad576104ac61041f565b5b92915050565b600082825260208201905092915050565b7f64732d6d6174682d6164642d6f766572666c6f77000000000000000000000000600082015250565b60006104fa6014836104b3565b9150610505826104c4565b602082019050919050565b60006020820190508181036000830152610529816104ed565b9050919050565b600061053b82610310565b915061054683610310565b925082610556576105556103f0565b5b828206905092915050565b600061056c82610310565b915061057783610310565b925082820261058581610310565b9150828204841483151761059c5761059b61041f565b5b5092915050565b7f64732d6d6174682d6d756c2d6f766572666c6f77000000000000000000000000600082015250565b60006105d96014836104b3565b91506105e4826105a3565b602082019050919050565b60006020820190508181036000830152610608816105cc565b905091905056fea26469706673582212208cf07369043e1f9546f616dec2283f9f1dccde60c54ad982555a0a47f427d58e64736f6c63430008110033a264697066735822122058108c3ba2df91546c4e3a058c11b7da13921d24bf23862ad2a64d63d15dbe7a64736f6c63430008110033","opcodes":"PUSH1 0x80 PUSH1 0x40 MSTORE PUSH3 0x6EBE00 PUSH1 0x6 SSTORE CALLVALUE DUP1 ISZERO PUSH2 0x17 JUMPI PUSH1 0x0 DUP1 REVERT JUMPDEST POP PUSH2 0x207D DUP1 PUSH2 0x27 PUSH1 0x0 CODECOPY PUSH1 0x0 RETURN INVALID PUSH1 0x80 PUSH1 0x40 MSTORE PUSH1 0x4 CALLDATASIZE LT PUSH2 0xC6 JUMPI PUSH1 0x0 CALLDATALOAD PUSH1 0xE0 SHR DUP1 PUSH4 0x5A6A18E1 GT PUSH2 0x7F JUMPI DUP1 PUSH4 0x6438645B GT PUSH2 0x59 JUMPI DUP1 PUSH4 0x6438645B EQ PUSH2 0x2EB JUMPI DUP1 PUSH4 0x93386718 EQ PUSH2 0x328 JUMPI DUP1 PUSH4 0xA205B12F EQ PUSH2 0x365 JUMPI DUP1 PUSH4 0xCC170C94 EQ PUSH2 0x3A2 JUMPI PUSH2 0x106 JUMP JUMPDEST DUP1 PUSH4 0x5A6A18E1 EQ PUSH2 0x241 JUMPI DUP1 PUSH4 0x5F88746C EQ PUSH2 0x271 JUMPI DUP1 PUSH4 0x620B7CB3 EQ PUSH2 0x2AE JUMPI PUSH2 0x106 JUMP JUMPDEST DUP1 PUSH4 0x27E235E3 EQ PUSH2 0x10B JUMPI DUP1 PUSH4 0x2ACBA4AB EQ PUSH2 0x148 JUMPI DUP1 PUSH4 0x30853C62 EQ PUSH2 0x185 JUMPI DUP1 PUSH4 0x3A420C1D EQ PUSH2 0x1C2 JUMPI DUP1 PUSH4 0x3AD0BC06 EQ PUSH2 0x1EB JUMPI DUP1 PUSH4 0x4BBF9037 EQ PUSH2 0x216 JUMPI PUSH2 0x106 JUMP JUMPDEST CALLDATASIZE PUSH2 0x106 JUMPI PUSH32 0x88A5966D370B9919B20F3E2C13FF65706F196A4E32CC2C12BF57088F88525874 CALLER CALLVALUE PUSH1 0x40 MLOAD PUSH2 0xFC SWAP3 SWAP2 SWAP1 PUSH2 0x124F JUMP JUMPDEST PUSH1 0x40 MLOAD DUP1 SWAP2 SUB SWAP1 LOG1 STOP JUMPDEST PUSH1 0x0 DUP1 REVERT JUMPDEST CALLVALUE DUP1 ISZERO PUSH2 0x117 JUMPI PUSH1 0x0 DUP1 REVERT JUMPDEST POP PUSH2 0x132 PUSH1 0x4 DUP1 CALLDATASIZE SUB DUP2 ADD SWAP1 PUSH2 0x12D SWAP2 SWAP1 PUSH2 0x12A9 JUMP JUMPDEST PUSH2 0x3CD JUMP JUMPDEST PUSH1 0x40 MLOAD PUSH2 0x13F SWAP2 SWAP1 PUSH2 0x12D6 JUMP JUMPDEST PUSH1 0x40 MLOAD DUP1 SWAP2 SUB SWAP1 RETURN JUMPDEST CALLVALUE DUP1 ISZERO PUSH2 0x154 JUMPI PUSH1 0x0 DUP1 REVERT JUMPDEST POP PUSH2 0x16F PUSH1 0x4 DUP1 CALLDATASIZE SUB DUP2 ADD SWAP1 PUSH2 0x16A SWAP2 SWAP1 PUSH2 0x12A9 JUMP JUMPDEST PUSH2 0x3E5 JUMP JUMPDEST PUSH1 0x40 MLOAD PUSH2 0x17C SWAP2 SWAP1 PUSH2 0x12D6 JUMP JUMPDEST PUSH1 0x40 MLOAD DUP1 SWAP2 SUB SWAP1 RETURN JUMPDEST CALLVALUE DUP1 ISZERO PUSH2 0x191 JUMPI PUSH1 0x0 DUP1 REVERT JUMPDEST POP PUSH2 0x1AC PUSH1 0x4 DUP1 CALLDATASIZE SUB DUP2 ADD SWAP1 PUSH2 0x1A7 SWAP2 SWAP1 PUSH2 0x12A9 JUMP JUMPDEST PUSH2 0x60F JUMP JUMPDEST PUSH1 0x40 MLOAD PUSH2 0x1B9 SWAP2 SWAP1 PUSH2 0x130C JUMP JUMPDEST PUSH1 0x40 MLOAD DUP1 SWAP2 SUB SWAP1 RETURN JUMPDEST CALLVALUE DUP1 ISZERO PUSH2 0x1CE JUMPI PUSH1 0x0 DUP1 REVERT JUMPDEST POP PUSH2 0x1E9 PUSH1 0x4 DUP1 CALLDATASIZE SUB DUP2 ADD SWAP1 PUSH2 0x1E4 SWAP2 SWAP1 PUSH2 0x1327 JUMP JUMPDEST PUSH2 0x62F JUMP JUMPDEST STOP JUMPDEST CALLVALUE DUP1 ISZERO PUSH2 0x1F7 JUMPI PUSH1 0x0 DUP1 REVERT JUMPDEST POP PUSH2 0x200 PUSH2 0xCE1 JUMP JUMPDEST PUSH1 0x40 MLOAD PUSH2 0x20D SWAP2 SWAP1 PUSH2 0x12D6 JUMP JUMPDEST PUSH1 0x40 MLOAD DUP1 SWAP2 SUB SWAP1 RETURN JUMPDEST CALLVALUE DUP1 ISZERO PUSH2 0x222 JUMPI PUSH1 0x0 DUP1 REVERT JUMPDEST POP PUSH2 0x22B PUSH2 0xD28 JUMP JUMPDEST PUSH1 0x40 MLOAD PUSH2 0x238 SWAP2 SWAP1 PUSH2 0x130C JUMP JUMPDEST PUSH1 0x40 MLOAD DUP1 SWAP2 SUB SWAP1 RETURN JUMPDEST PUSH2 0x25B PUSH1 0x4 DUP1 CALLDATASIZE SUB DUP2 ADD SWAP1 PUSH2 0x256 SWAP2 SWAP1 PUSH2 0x1393 JUMP JUMPDEST PUSH2 0xE00 JUMP JUMPDEST PUSH1 0x40 MLOAD PUSH2 0x268 SWAP2 SWAP1 PUSH2 0x130C JUMP JUMPDEST PUSH1 0x40 MLOAD DUP1 SWAP2 SUB SWAP1 RETURN JUMPDEST CALLVALUE DUP1 ISZERO PUSH2 0x27D JUMPI PUSH1 0x0 DUP1 REVERT JUMPDEST POP PUSH2 0x298 PUSH1 0x4 DUP1 CALLDATASIZE SUB DUP2 ADD SWAP1 PUSH2 0x293 SWAP2 SWAP1 PUSH2 0x12A9 JUMP JUMPDEST PUSH2 0xF30 JUMP JUMPDEST PUSH1 0x40 MLOAD PUSH2 0x2A5 SWAP2 SWAP1 PUSH2 0x12D6 JUMP JUMPDEST PUSH1 0x40 MLOAD DUP1 SWAP2 SUB SWAP1 RETURN JUMPDEST CALLVALUE DUP1 ISZERO PUSH2 0x2BA JUMPI PUSH1 0x0 DUP1 REVERT JUMPDEST POP PUSH2 0x2D5 PUSH1 0x4 DUP1 CALLDATASIZE SUB DUP2 ADD SWAP1 PUSH2 0x2D0 SWAP2 SWAP1 PUSH2 0x12A9 JUMP JUMPDEST PUSH2 0xF48 JUMP JUMPDEST PUSH1 0x40 MLOAD PUSH2 0x2E2 SWAP2 SWAP1 PUSH2 0x12D6 JUMP JUMPDEST PUSH1 0x40 MLOAD DUP1 SWAP2 SUB SWAP1 RETURN JUMPDEST CALLVALUE DUP1 ISZERO PUSH2 0x2F7 JUMPI PUSH1 0x0 DUP1 REVERT JUMPDEST POP PUSH2 0x312 PUSH1 0x4 DUP1 CALLDATASIZE SUB DUP2 ADD SWAP1 PUSH2 0x30D SWAP2 SWAP1 PUSH2 0x12A9 JUMP JUMPDEST PUSH2 0xF60 JUMP JUMPDEST PUSH1 0x40 MLOAD PUSH2 0x31F SWAP2 SWAP1 PUSH2 0x12D6 JUMP JUMPDEST PUSH1 0x40 MLOAD DUP1 SWAP2 SUB SWAP1 RETURN JUMPDEST CALLVALUE DUP1 ISZERO PUSH2 0x334 JUMPI PUSH1 0x0 DUP1 REVERT JUMPDEST POP PUSH2 0x34F PUSH1 0x4 DUP1 CALLDATASIZE SUB DUP2 ADD SWAP1 PUSH2 0x34A SWAP2 SWAP1 PUSH2 0x1327 JUMP JUMPDEST PUSH2 0xF78 JUMP JUMPDEST PUSH1 0x40 MLOAD PUSH2 0x35C SWAP2 SWAP1 PUSH2 0x13FA JUMP JUMPDEST PUSH1 0x40 MLOAD DUP1 SWAP2 SUB SWAP1 RETURN JUMPDEST CALLVALUE DUP1 ISZERO PUSH2 0x371 JUMPI PUSH1 0x0 DUP1 REVERT JUMPDEST POP PUSH2 0x38C PUSH1 0x4 DUP1 CALLDATASIZE SUB DUP2 ADD SWAP1 PUSH2 0x387 SWAP2 SWAP1 PUSH2 0x12A9 JUMP JUMPDEST PUSH2 0xFBA JUMP JUMPDEST PUSH1 0x40 MLOAD PUSH2 0x399 SWAP2 SWAP1 PUSH2 0x12D6 JUMP JUMPDEST PUSH1 0x40 MLOAD DUP1 SWAP2 SUB SWAP1 RETURN JUMPDEST CALLVALUE DUP1 ISZERO PUSH2 0x3AE JUMPI PUSH1 0x0 DUP1 REVERT JUMPDEST POP PUSH2 0x3B7 PUSH2 0x1003 JUMP JUMPDEST PUSH1 0x40 MLOAD PUSH2 0x3C4 SWAP2 SWAP1 PUSH2 0x12D6 JUMP JUMPDEST PUSH1 0x40 MLOAD DUP1 SWAP2 SUB SWAP1 RETURN JUMPDEST PUSH1 0x4 PUSH1 0x20 MSTORE DUP1 PUSH1 0x0 MSTORE PUSH1 0x40 PUSH1 0x0 KECCAK256 PUSH1 0x0 SWAP2 POP SWAP1 POP SLOAD DUP2 JUMP JUMPDEST PUSH1 0x0 DUP1 PUSH1 0x40 MLOAD PUSH2 0x3F4 SWAP1 PUSH2 0x11E8 JUMP JUMPDEST PUSH1 0x40 MLOAD DUP1 SWAP2 SUB SWAP1 PUSH1 0x0 CREATE DUP1 ISZERO DUP1 ISZERO PUSH2 0x410 JUMPI RETURNDATASIZE PUSH1 0x0 DUP1 RETURNDATACOPY RETURNDATASIZE PUSH1 0x0 REVERT JUMPDEST POP SWAP1 POP PUSH1 0x0 PUSH1 0x5 PUSH1 0x0 CALLER PUSH20 0xFFFFFFFFFFFFFFFFFFFFFFFFFFFFFFFFFFFFFFFF AND PUSH20 0xFFFFFFFFFFFFFFFFFFFFFFFFFFFFFFFFFFFFFFFF AND DUP2 MSTORE PUSH1 0x20 ADD SWAP1 DUP2 MSTORE PUSH1 0x20 ADD PUSH1 0x0 KECCAK256 SLOAD SWAP1 POP PUSH1 0x0 DUP3 PUSH20 0xFFFFFFFFFFFFFFFFFFFFFFFFFFFFFFFFFFFFFFFF AND PUSH4 0x60614CB PUSH8 0x429D069189E0000 PUSH1 0x40 MLOAD DUP3 PUSH4 0xFFFFFFFF AND PUSH1 0xE0 SHL DUP2 MSTORE PUSH1 0x4 ADD PUSH2 0x49A SWAP2 SWAP1 PUSH2 0x145A JUMP JUMPDEST PUSH1 0x20 PUSH1 0x40 MLOAD DUP1 DUP4 SUB DUP2 DUP7 GAS STATICCALL ISZERO DUP1 ISZERO PUSH2 0x4B7 JUMPI RETURNDATASIZE PUSH1 0x0 DUP1 RETURNDATACOPY RETURNDATASIZE PUSH1 0x0 REVERT JUMPDEST POP POP POP POP PUSH1 0x40 MLOAD RETURNDATASIZE PUSH1 0x1F NOT PUSH1 0x1F DUP3 ADD AND DUP3 ADD DUP1 PUSH1 0x40 MSTORE POP DUP2 ADD SWAP1 PUSH2 0x4DB SWAP2 SWAP1 PUSH2 0x14A1 JUMP JUMPDEST SWAP1 POP PUSH1 0x0 PUSH1 0x1 PUSH1 0x0 CALLER PUSH20 0xFFFFFFFFFFFFFFFFFFFFFFFFFFFFFFFFFFFFFFFF AND PUSH20 0xFFFFFFFFFFFFFFFFFFFFFFFFFFFFFFFFFFFFFFFF AND DUP2 MSTORE PUSH1 0x20 ADD SWAP1 DUP2 MSTORE PUSH1 0x20 ADD PUSH1 0x0 KECCAK256 SLOAD TIMESTAMP PUSH2 0x52A SWAP2 SWAP1 PUSH2 0x14FD JUMP JUMPDEST SWAP1 POP DUP4 PUSH20 0xFFFFFFFFFFFFFFFFFFFFFFFFFFFFFFFFFFFFFFFF AND PUSH4 0xDE251FB6 DUP5 DUP5 DUP5 PUSH1 0x40 MLOAD DUP5 PUSH4 0xFFFFFFFF AND PUSH1 0xE0 SHL DUP2 MSTORE PUSH1 0x4 ADD PUSH2 0x569 SWAP4 SWAP3 SWAP2 SWAP1 PUSH2 0x1531 JUMP JUMPDEST PUSH1 0x20 PUSH1 0x40 MLOAD DUP1 DUP4 SUB DUP2 DUP7 GAS STATICCALL ISZERO DUP1 ISZERO PUSH2 0x586 JUMPI RETURNDATASIZE PUSH1 0x0 DUP1 RETURNDATACOPY RETURNDATASIZE PUSH1 0x0 REVERT JUMPDEST POP POP POP POP PUSH1 0x40 MLOAD RETURNDATASIZE PUSH1 0x1F NOT PUSH1 0x1F DUP3 ADD AND DUP3 ADD DUP1 PUSH1 0x40 MSTORE POP DUP2 ADD SWAP1 PUSH2 0x5AA SWAP2 SWAP1 PUSH2 0x14A1 JUMP JUMPDEST PUSH1 0x0 DUP2 SWAP1 SSTORE POP DUP3 PUSH1 0x0 SLOAD PUSH2 0x5BE SWAP2 SWAP1 PUSH2 0x14FD JUMP JUMPDEST PUSH1 0x7 PUSH1 0x0 DUP9 PUSH20 0xFFFFFFFFFFFFFFFFFFFFFFFFFFFFFFFFFFFFFFFF AND PUSH20 0xFFFFFFFFFFFFFFFFFFFFFFFFFFFFFFFFFFFFFFFF AND DUP2 MSTORE PUSH1 0x20 ADD SWAP1 DUP2 MSTORE PUSH1 0x20 ADD PUSH1 0x0 KECCAK256 DUP2 SWAP1 SSTORE POP PUSH1 0x0 SLOAD SWAP5 POP POP POP POP POP SWAP2 SWAP1 POP JUMP JUMPDEST PUSH1 0x2 PUSH1 0x20 MSTORE DUP1 PUSH1 0x0 MSTORE PUSH1 0x40 PUSH1 0x0 KECCAK256 PUSH1 0x0 SWAP2 POP SLOAD SWAP1 PUSH2 0x100 EXP SWAP1 DIV PUSH1 0xFF AND DUP2 JUMP JUMPDEST CALLER DUP2 PUSH1 0x0 PUSH20 0xFFFFFFFFFFFFFFFFFFFFFFFFFFFFFFFFFFFFFFFF AND PUSH1 0x3 PUSH1 0x0 DUP5 PUSH20 0xFFFFFFFFFFFFFFFFFFFFFFFFFFFFFFFFFFFFFFFF AND PUSH20 0xFFFFFFFFFFFFFFFFFFFFFFFFFFFFFFFFFFFFFFFF AND DUP2 MSTORE PUSH1 0x20 ADD SWAP1 DUP2 MSTORE PUSH1 0x20 ADD PUSH1 0x0 KECCAK256 PUSH1 0x0 DUP4 PUSH20 0xFFFFFFFFFFFFFFFFFFFFFFFFFFFFFFFFFFFFFFFF AND PUSH20 0xFFFFFFFFFFFFFFFFFFFFFFFFFFFFFFFFFFFFFFFF AND DUP2 MSTORE PUSH1 0x20 ADD SWAP1 DUP2 MSTORE PUSH1 0x20 ADD PUSH1 0x0 KECCAK256 PUSH1 0x0 SWAP1 SLOAD SWAP1 PUSH2 0x100 EXP SWAP1 DIV PUSH20 0xFFFFFFFFFFFFFFFFFFFFFFFFFFFFFFFFFFFFFFFF AND PUSH20 0xFFFFFFFFFFFFFFFFFFFFFFFFFFFFFFFFFFFFFFFF AND SUB PUSH2 0x73C JUMPI PUSH1 0x40 MLOAD PUSH32 0x8C379A000000000000000000000000000000000000000000000000000000000 DUP2 MSTORE PUSH1 0x4 ADD PUSH2 0x733 SWAP1 PUSH2 0x15C5 JUMP JUMPDEST PUSH1 0x40 MLOAD DUP1 SWAP2 SUB SWAP1 REVERT JUMPDEST PUSH1 0x0 PUSH1 0x5 PUSH1 0x0 CALLER PUSH20 0xFFFFFFFFFFFFFFFFFFFFFFFFFFFFFFFFFFFFFFFF AND PUSH20 0xFFFFFFFFFFFFFFFFFFFFFFFFFFFFFFFFFFFFFFFF AND DUP2 MSTORE PUSH1 0x20 ADD SWAP1 DUP2 MSTORE PUSH1 0x20 ADD PUSH1 0x0 KECCAK256 SLOAD GT PUSH2 0x7BE JUMPI PUSH1 0x40 MLOAD PUSH32 0x8C379A000000000000000000000000000000000000000000000000000000000 DUP2 MSTORE PUSH1 0x4 ADD PUSH2 0x7B5 SWAP1 PUSH2 0x1631 JUMP JUMPDEST PUSH1 0x40 MLOAD DUP1 SWAP2 SUB SWAP1 REVERT JUMPDEST PUSH1 0x0 PUSH1 0x5 PUSH1 0x0 CALLER PUSH20 0xFFFFFFFFFFFFFFFFFFFFFFFFFFFFFFFFFFFFFFFF AND PUSH20 0xFFFFFFFFFFFFFFFFFFFFFFFFFFFFFFFFFFFFFFFF AND DUP2 MSTORE PUSH1 0x20 ADD SWAP1 DUP2 MSTORE PUSH1 0x20 ADD PUSH1 0x0 KECCAK256 SLOAD SWAP1 POP PUSH1 0x2 PUSH1 0x0 DUP7 PUSH20 0xFFFFFFFFFFFFFFFFFFFFFFFFFFFFFFFFFFFFFFFF AND PUSH20 0xFFFFFFFFFFFFFFFFFFFFFFFFFFFFFFFFFFFFFFFF AND DUP2 MSTORE PUSH1 0x20 ADD SWAP1 DUP2 MSTORE PUSH1 0x20 ADD PUSH1 0x0 KECCAK256 PUSH1 0x0 SWAP1 SLOAD SWAP1 PUSH2 0x100 EXP SWAP1 DIV PUSH1 0xFF AND ISZERO PUSH2 0xB81 JUMPI PUSH1 0x6 SLOAD PUSH1 0x1 PUSH1 0x0 CALLER PUSH20 0xFFFFFFFFFFFFFFFFFFFFFFFFFFFFFFFFFFFFFFFF AND PUSH20 0xFFFFFFFFFFFFFFFFFFFFFFFFFFFFFFFFFFFFFFFF AND DUP2 MSTORE PUSH1 0x20 ADD SWAP1 DUP2 MSTORE PUSH1 0x20 ADD PUSH1 0x0 KECCAK256 SLOAD PUSH2 0x8A1 SWAP2 SWAP1 PUSH2 0x1651 JUMP JUMPDEST TIMESTAMP LT ISZERO PUSH2 0x8E3 JUMPI PUSH1 0x40 MLOAD PUSH32 0x8C379A000000000000000000000000000000000000000000000000000000000 DUP2 MSTORE PUSH1 0x4 ADD PUSH2 0x8DA SWAP1 PUSH2 0x16D1 JUMP JUMPDEST PUSH1 0x40 MLOAD DUP1 SWAP2 SUB SWAP1 REVERT JUMPDEST PUSH1 0x0 PUSH2 0x8EE DUP7 PUSH2 0x3E5 JUMP JUMPDEST SWAP1 POP PUSH1 0x0 PUSH1 0x5 PUSH1 0x0 CALLER PUSH20 0xFFFFFFFFFFFFFFFFFFFFFFFFFFFFFFFFFFFFFFFF AND PUSH20 0xFFFFFFFFFFFFFFFFFFFFFFFFFFFFFFFFFFFFFFFF AND DUP2 MSTORE PUSH1 0x20 ADD SWAP1 DUP2 MSTORE PUSH1 0x20 ADD PUSH1 0x0 KECCAK256 DUP2 SWAP1 SSTORE POP PUSH1 0x0 PUSH1 0x3 PUSH1 0x0 CALLER PUSH20 0xFFFFFFFFFFFFFFFFFFFFFFFFFFFFFFFFFFFFFFFF AND PUSH20 0xFFFFFFFFFFFFFFFFFFFFFFFFFFFFFFFFFFFFFFFF AND DUP2 MSTORE PUSH1 0x20 ADD SWAP1 DUP2 MSTORE PUSH1 0x20 ADD PUSH1 0x0 KECCAK256 PUSH1 0x0 DUP8 PUSH20 0xFFFFFFFFFFFFFFFFFFFFFFFFFFFFFFFFFFFFFFFF AND PUSH20 0xFFFFFFFFFFFFFFFFFFFFFFFFFFFFFFFFFFFFFFFF AND DUP2 MSTORE PUSH1 0x20 ADD SWAP1 DUP2 MSTORE PUSH1 0x20 ADD PUSH1 0x0 KECCAK256 PUSH1 0x0 SWAP1 SLOAD SWAP1 PUSH2 0x100 EXP SWAP1 DIV PUSH20 0xFFFFFFFFFFFFFFFFFFFFFFFFFFFFFFFFFFFFFFFF AND PUSH20 0xFFFFFFFFFFFFFFFFFFFFFFFFFFFFFFFFFFFFFFFF AND DUP4 PUSH1 0x40 MLOAD PUSH2 0x9F7 SWAP1 PUSH2 0x1722 JUMP JUMPDEST PUSH1 0x0 PUSH1 0x40 MLOAD DUP1 DUP4 SUB DUP2 DUP6 DUP8 GAS CALL SWAP3 POP POP POP RETURNDATASIZE DUP1 PUSH1 0x0 DUP2 EQ PUSH2 0xA34 JUMPI PUSH1 0x40 MLOAD SWAP2 POP PUSH1 0x1F NOT PUSH1 0x3F RETURNDATASIZE ADD AND DUP3 ADD PUSH1 0x40 MSTORE RETURNDATASIZE DUP3 MSTORE RETURNDATASIZE PUSH1 0x0 PUSH1 0x20 DUP5 ADD RETURNDATACOPY PUSH2 0xA39 JUMP JUMPDEST PUSH1 0x60 SWAP2 POP JUMPDEST POP POP SWAP1 POP DUP1 PUSH2 0xA7D JUMPI PUSH1 0x40 MLOAD PUSH32 0x8C379A000000000000000000000000000000000000000000000000000000000 DUP2 MSTORE PUSH1 0x4 ADD PUSH2 0xA74 SWAP1 PUSH2 0x17A9 JUMP JUMPDEST PUSH1 0x40 MLOAD DUP1 SWAP2 SUB SWAP1 REVERT JUMPDEST PUSH1 0x0 DUP4 DUP4 PUSH2 0xA8B SWAP2 SWAP1 PUSH2 0x14FD JUMP JUMPDEST SWAP1 POP PUSH2 0xACC PUSH1 0x40 MLOAD DUP1 PUSH1 0x40 ADD PUSH1 0x40 MSTORE DUP1 PUSH1 0xF DUP2 MSTORE PUSH1 0x20 ADD PUSH32 0x496E7465726573742076616C75653A0000000000000000000000000000000000 DUP2 MSTORE POP DUP3 PUSH2 0x1009 JUMP JUMPDEST PUSH1 0x0 DUP9 PUSH20 0xFFFFFFFFFFFFFFFFFFFFFFFFFFFFFFFFFFFFFFFF AND DUP3 PUSH1 0x40 MLOAD PUSH2 0xAF2 SWAP1 PUSH2 0x1722 JUMP JUMPDEST PUSH1 0x0 PUSH1 0x40 MLOAD DUP1 DUP4 SUB DUP2 DUP6 DUP8 GAS CALL SWAP3 POP POP POP RETURNDATASIZE DUP1 PUSH1 0x0 DUP2 EQ PUSH2 0xB2F JUMPI PUSH1 0x40 MLOAD SWAP2 POP PUSH1 0x1F NOT PUSH1 0x3F RETURNDATASIZE ADD AND DUP3 ADD PUSH1 0x40 MSTORE RETURNDATASIZE DUP3 MSTORE RETURNDATASIZE PUSH1 0x0 PUSH1 0x20 DUP5 ADD RETURNDATACOPY PUSH2 0xB34 JUMP JUMPDEST PUSH1 0x60 SWAP2 POP JUMPDEST POP POP SWAP1 POP DUP1 PUSH2 0xB78 JUMPI PUSH1 0x40 MLOAD PUSH32 0x8C379A000000000000000000000000000000000000000000000000000000000 DUP2 MSTORE PUSH1 0x4 ADD PUSH2 0xB6F SWAP1 PUSH2 0x183B JUMP JUMPDEST PUSH1 0x40 MLOAD DUP1 SWAP2 SUB SWAP1 REVERT JUMPDEST POP POP POP POP PUSH2 0xCDA JUMP JUMPDEST PUSH1 0x0 PUSH1 0x5 PUSH1 0x0 CALLER PUSH20 0xFFFFFFFFFFFFFFFFFFFFFFFFFFFFFFFFFFFFFFFF AND PUSH20 0xFFFFFFFFFFFFFFFFFFFFFFFFFFFFFFFFFFFFFFFF AND DUP2 MSTORE PUSH1 0x20 ADD SWAP1 DUP2 MSTORE PUSH1 0x20 ADD PUSH1 0x0 KECCAK256 DUP2 SWAP1 SSTORE POP PUSH1 0x0 PUSH1 0x3 PUSH1 0x0 CALLER PUSH20 0xFFFFFFFFFFFFFFFFFFFFFFFFFFFFFFFFFFFFFFFF AND PUSH20 0xFFFFFFFFFFFFFFFFFFFFFFFFFFFFFFFFFFFFFFFF AND DUP2 MSTORE PUSH1 0x20 ADD SWAP1 DUP2 MSTORE PUSH1 0x20 ADD PUSH1 0x0 KECCAK256 PUSH1 0x0 DUP7 PUSH20 0xFFFFFFFFFFFFFFFFFFFFFFFFFFFFFFFFFFFFFFFF AND PUSH20 0xFFFFFFFFFFFFFFFFFFFFFFFFFFFFFFFFFFFFFFFF AND DUP2 MSTORE PUSH1 0x20 ADD SWAP1 DUP2 MSTORE PUSH1 0x20 ADD PUSH1 0x0 KECCAK256 PUSH1 0x0 SWAP1 SLOAD SWAP1 PUSH2 0x100 EXP SWAP1 DIV PUSH20 0xFFFFFFFFFFFFFFFFFFFFFFFFFFFFFFFFFFFFFFFF AND PUSH20 0xFFFFFFFFFFFFFFFFFFFFFFFFFFFFFFFFFFFFFFFF AND DUP3 PUSH1 0x40 MLOAD PUSH2 0xC88 SWAP1 PUSH2 0x1722 JUMP JUMPDEST PUSH1 0x0 PUSH1 0x40 MLOAD DUP1 DUP4 SUB DUP2 DUP6 DUP8 GAS CALL SWAP3 POP POP POP RETURNDATASIZE DUP1 PUSH1 0x0 DUP2 EQ PUSH2 0xCC5 JUMPI PUSH1 0x40 MLOAD SWAP2 POP PUSH1 0x1F NOT PUSH1 0x3F RETURNDATASIZE ADD AND DUP3 ADD PUSH1 0x40 MSTORE RETURNDATASIZE DUP3 MSTORE RETURNDATASIZE PUSH1 0x0 PUSH1 0x20 DUP5 ADD RETURNDATACOPY PUSH2 0xCCA JUMP JUMPDEST PUSH1 0x60 SWAP2 POP JUMPDEST POP POP SWAP1 POP DUP1 PUSH2 0xCD8 JUMPI PUSH1 0x0 DUP1 REVERT JUMPDEST POP JUMPDEST POP POP POP POP POP JUMP JUMPDEST PUSH1 0x0 PUSH1 0x1 PUSH1 0x0 ADDRESS PUSH20 0xFFFFFFFFFFFFFFFFFFFFFFFFFFFFFFFFFFFFFFFF AND PUSH20 0xFFFFFFFFFFFFFFFFFFFFFFFFFFFFFFFFFFFFFFFF AND DUP2 MSTORE PUSH1 0x20 ADD SWAP1 DUP2 MSTORE PUSH1 0x20 ADD PUSH1 0x0 KECCAK256 SLOAD SWAP1 POP SWAP1 JUMP JUMPDEST PUSH1 0x0 CALLER PUSH1 0x0 PUSH1 0x1 PUSH1 0x0 DUP4 PUSH20 0xFFFFFFFFFFFFFFFFFFFFFFFFFFFFFFFFFFFFFFFF AND PUSH20 0xFFFFFFFFFFFFFFFFFFFFFFFFFFFFFFFFFFFFFFFF AND DUP2 MSTORE PUSH1 0x20 ADD SWAP1 DUP2 MSTORE PUSH1 0x20 ADD PUSH1 0x0 KECCAK256 SLOAD SUB PUSH2 0xDAD JUMPI PUSH1 0x40 MLOAD PUSH32 0x8C379A000000000000000000000000000000000000000000000000000000000 DUP2 MSTORE PUSH1 0x4 ADD PUSH2 0xDA4 SWAP1 PUSH2 0x18A7 JUMP JUMPDEST PUSH1 0x40 MLOAD DUP1 SWAP2 SUB SWAP1 REVERT JUMPDEST PUSH1 0x2 PUSH1 0x0 CALLER PUSH20 0xFFFFFFFFFFFFFFFFFFFFFFFFFFFFFFFFFFFFFFFF AND PUSH20 0xFFFFFFFFFFFFFFFFFFFFFFFFFFFFFFFFFFFFFFFF AND DUP2 MSTORE PUSH1 0x20 ADD SWAP1 DUP2 MSTORE PUSH1 0x20 ADD PUSH1 0x0 KECCAK256 PUSH1 0x0 SWAP1 SLOAD SWAP1 PUSH2 0x100 EXP SWAP1 DIV PUSH1 0xFF AND SWAP2 POP POP SWAP1 JUMP JUMPDEST PUSH1 0x0 DUP1 CALLVALUE GT PUSH2 0xE44 JUMPI PUSH1 0x40 MLOAD PUSH32 0x8C379A000000000000000000000000000000000000000000000000000000000 DUP2 MSTORE PUSH1 0x4 ADD PUSH2 0xE3B SWAP1 PUSH2 0x1913 JUMP JUMPDEST PUSH1 0x40 MLOAD DUP1 SWAP2 SUB SWAP1 REVERT JUMPDEST TIMESTAMP PUSH1 0x1 PUSH1 0x0 CALLER PUSH20 0xFFFFFFFFFFFFFFFFFFFFFFFFFFFFFFFFFFFFFFFF AND PUSH20 0xFFFFFFFFFFFFFFFFFFFFFFFFFFFFFFFFFFFFFFFF AND DUP2 MSTORE PUSH1 0x20 ADD SWAP1 DUP2 MSTORE PUSH1 0x20 ADD PUSH1 0x0 KECCAK256 DUP2 SWAP1 SSTORE POP CALLVALUE PUSH1 0x4 PUSH1 0x0 DUP8 PUSH20 0xFFFFFFFFFFFFFFFFFFFFFFFFFFFFFFFFFFFFFFFF AND PUSH20 0xFFFFFFFFFFFFFFFFFFFFFFFFFFFFFFFFFFFFFFFF AND DUP2 MSTORE PUSH1 0x20 ADD SWAP1 DUP2 MSTORE PUSH1 0x20 ADD PUSH1 0x0 KECCAK256 DUP2 SWAP1 SSTORE POP CALLVALUE PUSH1 0x5 PUSH1 0x0 CALLER PUSH20 0xFFFFFFFFFFFFFFFFFFFFFFFFFFFFFFFFFFFFFFFF AND PUSH20 0xFFFFFFFFFFFFFFFFFFFFFFFFFFFFFFFFFFFFFFFF AND DUP2 MSTORE PUSH1 0x20 ADD SWAP1 DUP2 MSTORE PUSH1 0x20 ADD PUSH1 0x0 KECCAK256 DUP2 SWAP1 SSTORE POP PUSH2 0xF1A DUP5 DUP5 PUSH2 0x10A5 JUMP JUMPDEST PUSH2 0xF24 DUP6 DUP4 PUSH2 0x1164 JUMP JUMPDEST PUSH1 0x1 SWAP1 POP SWAP5 SWAP4 POP POP POP POP JUMP JUMPDEST PUSH1 0x1 PUSH1 0x20 MSTORE DUP1 PUSH1 0x0 MSTORE PUSH1 0x40 PUSH1 0x0 KECCAK256 PUSH1 0x0 SWAP2 POP SWAP1 POP SLOAD DUP2 JUMP JUMPDEST PUSH1 0x5 PUSH1 0x20 MSTORE DUP1 PUSH1 0x0 MSTORE PUSH1 0x40 PUSH1 0x0 KECCAK256 PUSH1 0x0 SWAP2 POP SWAP1 POP SLOAD DUP2 JUMP JUMPDEST PUSH1 0x7 PUSH1 0x20 MSTORE DUP1 PUSH1 0x0 MSTORE PUSH1 0x40 PUSH1 0x0 KECCAK256 PUSH1 0x0 SWAP2 POP SWAP1 POP SLOAD DUP2 JUMP JUMPDEST PUSH1 0x3 PUSH1 0x20 MSTORE DUP2 PUSH1 0x0 MSTORE PUSH1 0x40 PUSH1 0x0 KECCAK256 PUSH1 0x20 MSTORE DUP1 PUSH1 0x0 MSTORE PUSH1 0x40 PUSH1 0x0 KECCAK256 PUSH1 0x0 SWAP2 POP SWAP2 POP SWAP1 SLOAD SWAP1 PUSH2 0x100 EXP SWAP1 DIV PUSH20 0xFFFFFFFFFFFFFFFFFFFFFFFFFFFFFFFFFFFFFFFF AND DUP2 JUMP JUMPDEST PUSH1 0x0 PUSH1 0x7 PUSH1 0x0 DUP4 PUSH20 0xFFFFFFFFFFFFFFFFFFFFFFFFFFFFFFFFFFFFFFFF AND PUSH20 0xFFFFFFFFFFFFFFFFFFFFFFFFFFFFFFFFFFFFFFFF AND DUP2 MSTORE PUSH1 0x20 ADD SWAP1 DUP2 MSTORE PUSH1 0x20 ADD PUSH1 0x0 KECCAK256 SLOAD SWAP1 POP SWAP2 SWAP1 POP JUMP JUMPDEST PUSH1 0x6 SLOAD DUP2 JUMP JUMPDEST PUSH2 0x10A1 DUP3 DUP3 PUSH1 0x40 MLOAD PUSH1 0x24 ADD PUSH2 0x101F SWAP3 SWAP2 SWAP1 PUSH2 0x19B2 JUMP JUMPDEST PUSH1 0x40 MLOAD PUSH1 0x20 DUP2 DUP4 SUB SUB DUP2 MSTORE SWAP1 PUSH1 0x40 MSTORE PUSH32 0xB60E72CC00000000000000000000000000000000000000000000000000000000 PUSH28 0xFFFFFFFFFFFFFFFFFFFFFFFFFFFFFFFFFFFFFFFFFFFFFFFFFFFFFFFF NOT AND PUSH1 0x20 DUP3 ADD DUP1 MLOAD PUSH28 0xFFFFFFFFFFFFFFFFFFFFFFFFFFFFFFFFFFFFFFFFFFFFFFFFFFFFFFFF DUP4 DUP2 DUP4 AND OR DUP4 MSTORE POP POP POP POP PUSH2 0x11BF JUMP JUMPDEST POP POP JUMP JUMPDEST DUP1 PUSH1 0x3 PUSH1 0x0 CALLER PUSH20 0xFFFFFFFFFFFFFFFFFFFFFFFFFFFFFFFFFFFFFFFF AND PUSH20 0xFFFFFFFFFFFFFFFFFFFFFFFFFFFFFFFFFFFFFFFF AND DUP2 MSTORE PUSH1 0x20 ADD SWAP1 DUP2 MSTORE PUSH1 0x20 ADD PUSH1 0x0 KECCAK256 PUSH1 0x0 DUP5 PUSH20 0xFFFFFFFFFFFFFFFFFFFFFFFFFFFFFFFFFFFFFFFF AND PUSH20 0xFFFFFFFFFFFFFFFFFFFFFFFFFFFFFFFFFFFFFFFF AND DUP2 MSTORE PUSH1 0x20 ADD SWAP1 DUP2 MSTORE PUSH1 0x20 ADD PUSH1 0x0 KECCAK256 PUSH1 0x0 PUSH2 0x100 EXP DUP2 SLOAD DUP2 PUSH20 0xFFFFFFFFFFFFFFFFFFFFFFFFFFFFFFFFFFFFFFFF MUL NOT AND SWAP1 DUP4 PUSH20 0xFFFFFFFFFFFFFFFFFFFFFFFFFFFFFFFFFFFFFFFF AND MUL OR SWAP1 SSTORE POP POP POP JUMP JUMPDEST DUP1 PUSH1 0x2 PUSH1 0x0 DUP5 PUSH20 0xFFFFFFFFFFFFFFFFFFFFFFFFFFFFFFFFFFFFFFFF AND PUSH20 0xFFFFFFFFFFFFFFFFFFFFFFFFFFFFFFFFFFFFFFFF AND DUP2 MSTORE PUSH1 0x20 ADD SWAP1 DUP2 MSTORE PUSH1 0x20 ADD PUSH1 0x0 KECCAK256 PUSH1 0x0 PUSH2 0x100 EXP DUP2 SLOAD DUP2 PUSH1 0xFF MUL NOT AND SWAP1 DUP4 ISZERO ISZERO MUL OR SWAP1 SSTORE POP POP POP JUMP JUMPDEST PUSH1 0x0 DUP2 MLOAD SWAP1 POP PUSH1 0x0 PUSH11 0x636F6E736F6C652E6C6F67 SWAP1 POP PUSH1 0x20 DUP4 ADD PUSH1 0x0 DUP1 DUP5 DUP4 DUP6 GAS STATICCALL POP POP POP POP POP JUMP JUMPDEST PUSH2 0x665 DUP1 PUSH2 0x19E3 DUP4 CODECOPY ADD SWAP1 JUMP JUMPDEST PUSH1 0x0 PUSH20 0xFFFFFFFFFFFFFFFFFFFFFFFFFFFFFFFFFFFFFFFF DUP3 AND SWAP1 POP SWAP2 SWAP1 POP JUMP JUMPDEST PUSH1 0x0 PUSH2 0x1220 DUP3 PUSH2 0x11F5 JUMP JUMPDEST SWAP1 POP SWAP2 SWAP1 POP JUMP JUMPDEST PUSH2 0x1230 DUP2 PUSH2 0x1215 JUMP JUMPDEST DUP3 MSTORE POP POP JUMP JUMPDEST PUSH1 0x0 DUP2 SWAP1 POP SWAP2 SWAP1 POP JUMP JUMPDEST PUSH2 0x1249 DUP2 PUSH2 0x1236 JUMP JUMPDEST DUP3 MSTORE POP POP JUMP JUMPDEST PUSH1 0x0 PUSH1 0x40 DUP3 ADD SWAP1 POP PUSH2 0x1264 PUSH1 0x0 DUP4 ADD DUP6 PUSH2 0x1227 JUMP JUMPDEST PUSH2 0x1271 PUSH1 0x20 DUP4 ADD DUP5 PUSH2 0x1240 JUMP JUMPDEST SWAP4 SWAP3 POP POP POP JUMP JUMPDEST PUSH1 0x0 DUP1 REVERT JUMPDEST PUSH2 0x1286 DUP2 PUSH2 0x1215 JUMP JUMPDEST DUP2 EQ PUSH2 0x1291 JUMPI PUSH1 0x0 DUP1 REVERT JUMPDEST POP JUMP JUMPDEST PUSH1 0x0 DUP2 CALLDATALOAD SWAP1 POP PUSH2 0x12A3 DUP2 PUSH2 0x127D JUMP JUMPDEST SWAP3 SWAP2 POP POP JUMP JUMPDEST PUSH1 0x0 PUSH1 0x20 DUP3 DUP5 SUB SLT ISZERO PUSH2 0x12BF JUMPI PUSH2 0x12BE PUSH2 0x1278 JUMP JUMPDEST JUMPDEST PUSH1 0x0 PUSH2 0x12CD DUP5 DUP3 DUP6 ADD PUSH2 0x1294 JUMP JUMPDEST SWAP2 POP POP SWAP3 SWAP2 POP POP JUMP JUMPDEST PUSH1 0x0 PUSH1 0x20 DUP3 ADD SWAP1 POP PUSH2 0x12EB PUSH1 0x0 DUP4 ADD DUP5 PUSH2 0x1240 JUMP JUMPDEST SWAP3 SWAP2 POP POP JUMP JUMPDEST PUSH1 0x0 DUP2 ISZERO ISZERO SWAP1 POP SWAP2 SWAP1 POP JUMP JUMPDEST PUSH2 0x1306 DUP2 PUSH2 0x12F1 JUMP JUMPDEST DUP3 MSTORE POP POP JUMP JUMPDEST PUSH1 0x0 PUSH1 0x20 DUP3 ADD SWAP1 POP PUSH2 0x1321 PUSH1 0x0 DUP4 ADD DUP5 PUSH2 0x12FD JUMP JUMPDEST SWAP3 SWAP2 POP POP JUMP JUMPDEST PUSH1 0x0 DUP1 PUSH1 0x40 DUP4 DUP6 SUB SLT ISZERO PUSH2 0x133E JUMPI PUSH2 0x133D PUSH2 0x1278 JUMP JUMPDEST JUMPDEST PUSH1 0x0 PUSH2 0x134C DUP6 DUP3 DUP7 ADD PUSH2 0x1294 JUMP JUMPDEST SWAP3 POP POP PUSH1 0x20 PUSH2 0x135D DUP6 DUP3 DUP7 ADD PUSH2 0x1294 JUMP JUMPDEST SWAP2 POP POP SWAP3 POP SWAP3 SWAP1 POP JUMP JUMPDEST PUSH2 0x1370 DUP2 PUSH2 0x12F1 JUMP JUMPDEST DUP2 EQ PUSH2 0x137B JUMPI PUSH1 0x0 DUP1 REVERT JUMPDEST POP JUMP JUMPDEST PUSH1 0x0 DUP2 CALLDATALOAD SWAP1 POP PUSH2 0x138D DUP2 PUSH2 0x1367 JUMP JUMPDEST SWAP3 SWAP2 POP POP JUMP JUMPDEST PUSH1 0x0 DUP1 PUSH1 0x0 DUP1 PUSH1 0x80 DUP6 DUP8 SUB SLT ISZERO PUSH2 0x13AD JUMPI PUSH2 0x13AC PUSH2 0x1278 JUMP JUMPDEST JUMPDEST PUSH1 0x0 PUSH2 0x13BB DUP8 DUP3 DUP9 ADD PUSH2 0x1294 JUMP JUMPDEST SWAP5 POP POP PUSH1 0x20 PUSH2 0x13CC DUP8 DUP3 DUP9 ADD PUSH2 0x1294 JUMP JUMPDEST SWAP4 POP POP PUSH1 0x40 PUSH2 0x13DD DUP8 DUP3 DUP9 ADD PUSH2 0x1294 JUMP JUMPDEST SWAP3 POP POP PUSH1 0x60 PUSH2 0x13EE DUP8 DUP3 DUP9 ADD PUSH2 0x137E JUMP JUMPDEST SWAP2 POP POP SWAP3 SWAP6 SWAP2 SWAP5 POP SWAP3 POP JUMP JUMPDEST PUSH1 0x0 PUSH1 0x20 DUP3 ADD SWAP1 POP PUSH2 0x140F PUSH1 0x0 DUP4 ADD DUP5 PUSH2 0x1227 JUMP JUMPDEST SWAP3 SWAP2 POP POP JUMP JUMPDEST PUSH1 0x0 DUP2 SWAP1 POP SWAP2 SWAP1 POP JUMP JUMPDEST PUSH1 0x0 DUP2 SWAP1 POP SWAP2 SWAP1 POP JUMP JUMPDEST PUSH1 0x0 PUSH2 0x1444 PUSH2 0x143F PUSH2 0x143A DUP5 PUSH2 0x1415 JUMP JUMPDEST PUSH2 0x141F JUMP JUMPDEST PUSH2 0x1236 JUMP JUMPDEST SWAP1 POP SWAP2 SWAP1 POP JUMP JUMPDEST PUSH2 0x1454 DUP2 PUSH2 0x1429 JUMP JUMPDEST DUP3 MSTORE POP POP JUMP JUMPDEST PUSH1 0x0 PUSH1 0x20 DUP3 ADD SWAP1 POP PUSH2 0x146F PUSH1 0x0 DUP4 ADD DUP5 PUSH2 0x144B JUMP JUMPDEST SWAP3 SWAP2 POP POP JUMP JUMPDEST PUSH2 0x147E DUP2 PUSH2 0x1236 JUMP JUMPDEST DUP2 EQ PUSH2 0x1489 JUMPI PUSH1 0x0 DUP1 REVERT JUMPDEST POP JUMP JUMPDEST PUSH1 0x0 DUP2 MLOAD SWAP1 POP PUSH2 0x149B DUP2 PUSH2 0x1475 JUMP JUMPDEST SWAP3 SWAP2 POP POP JUMP JUMPDEST PUSH1 0x0 PUSH1 0x20 DUP3 DUP5 SUB SLT ISZERO PUSH2 0x14B7 JUMPI PUSH2 0x14B6 PUSH2 0x1278 JUMP JUMPDEST JUMPDEST PUSH1 0x0 PUSH2 0x14C5 DUP5 DUP3 DUP6 ADD PUSH2 0x148C JUMP JUMPDEST SWAP2 POP POP SWAP3 SWAP2 POP POP JUMP JUMPDEST PUSH32 0x4E487B7100000000000000000000000000000000000000000000000000000000 PUSH1 0x0 MSTORE PUSH1 0x11 PUSH1 0x4 MSTORE PUSH1 0x24 PUSH1 0x0 REVERT JUMPDEST PUSH1 0x0 PUSH2 0x1508 DUP3 PUSH2 0x1236 JUMP JUMPDEST SWAP2 POP PUSH2 0x1513 DUP4 PUSH2 0x1236 JUMP JUMPDEST SWAP3 POP DUP3 DUP3 SUB SWAP1 POP DUP2 DUP2 GT ISZERO PUSH2 0x152B JUMPI PUSH2 0x152A PUSH2 0x14CE JUMP JUMPDEST JUMPDEST SWAP3 SWAP2 POP POP JUMP JUMPDEST PUSH1 0x0 PUSH1 0x60 DUP3 ADD SWAP1 POP PUSH2 0x1546 PUSH1 0x0 DUP4 ADD DUP7 PUSH2 0x1240 JUMP JUMPDEST PUSH2 0x1553 PUSH1 0x20 DUP4 ADD DUP6 PUSH2 0x1240 JUMP JUMPDEST PUSH2 0x1560 PUSH1 0x40 DUP4 ADD DUP5 PUSH2 0x1240 JUMP JUMPDEST SWAP5 SWAP4 POP POP POP POP JUMP JUMPDEST PUSH1 0x0 DUP3 DUP3 MSTORE PUSH1 0x20 DUP3 ADD SWAP1 POP SWAP3 SWAP2 POP POP JUMP JUMPDEST PUSH32 0x596F752772206E6F742074686520617262697465722100000000000000000000 PUSH1 0x0 DUP3 ADD MSTORE POP JUMP JUMPDEST PUSH1 0x0 PUSH2 0x15AF PUSH1 0x16 DUP4 PUSH2 0x1568 JUMP JUMPDEST SWAP2 POP PUSH2 0x15BA DUP3 PUSH2 0x1579 JUMP JUMPDEST PUSH1 0x20 DUP3 ADD SWAP1 POP SWAP2 SWAP1 POP JUMP JUMPDEST PUSH1 0x0 PUSH1 0x20 DUP3 ADD SWAP1 POP DUP2 DUP2 SUB PUSH1 0x0 DUP4 ADD MSTORE PUSH2 0x15DE DUP2 PUSH2 0x15A2 JUMP JUMPDEST SWAP1 POP SWAP2 SWAP1 POP JUMP JUMPDEST PUSH32 0x436F6E74726163742042616C616E636520697320302100000000000000000000 PUSH1 0x0 DUP3 ADD MSTORE POP JUMP JUMPDEST PUSH1 0x0 PUSH2 0x161B PUSH1 0x16 DUP4 PUSH2 0x1568 JUMP JUMPDEST SWAP2 POP PUSH2 0x1626 DUP3 PUSH2 0x15E5 JUMP JUMPDEST PUSH1 0x20 DUP3 ADD SWAP1 POP SWAP2 SWAP1 POP JUMP JUMPDEST PUSH1 0x0 PUSH1 0x20 DUP3 ADD SWAP1 POP DUP2 DUP2 SUB PUSH1 0x0 DUP4 ADD MSTORE PUSH2 0x164A DUP2 PUSH2 0x160E JUMP JUMPDEST SWAP1 POP SWAP2 SWAP1 POP JUMP JUMPDEST PUSH1 0x0 PUSH2 0x165C DUP3 PUSH2 0x1236 JUMP JUMPDEST SWAP2 POP PUSH2 0x1667 DUP4 PUSH2 0x1236 JUMP JUMPDEST SWAP3 POP DUP3 DUP3 ADD SWAP1 POP DUP1 DUP3 GT ISZERO PUSH2 0x167F JUMPI PUSH2 0x167E PUSH2 0x14CE JUMP JUMPDEST JUMPDEST SWAP3 SWAP2 POP POP JUMP JUMPDEST PUSH32 0x436C61696D2074696D65206E6F74207265616368656420796574210000000000 PUSH1 0x0 DUP3 ADD MSTORE POP JUMP JUMPDEST PUSH1 0x0 PUSH2 0x16BB PUSH1 0x1B DUP4 PUSH2 0x1568 JUMP JUMPDEST SWAP2 POP PUSH2 0x16C6 DUP3 PUSH2 0x1685 JUMP JUMPDEST PUSH1 0x20 DUP3 ADD SWAP1 POP SWAP2 SWAP1 POP JUMP JUMPDEST PUSH1 0x0 PUSH1 0x20 DUP3 ADD SWAP1 POP DUP2 DUP2 SUB PUSH1 0x0 DUP4 ADD MSTORE PUSH2 0x16EA DUP2 PUSH2 0x16AE JUMP JUMPDEST SWAP1 POP SWAP2 SWAP1 POP JUMP JUMPDEST PUSH1 0x0 DUP2 SWAP1 POP SWAP3 SWAP2 POP POP JUMP JUMPDEST POP JUMP JUMPDEST PUSH1 0x0 PUSH2 0x170C PUSH1 0x0 DUP4 PUSH2 0x16F1 JUMP JUMPDEST SWAP2 POP PUSH2 0x1717 DUP3 PUSH2 0x16FC JUMP JUMPDEST PUSH1 0x0 DUP3 ADD SWAP1 POP SWAP2 SWAP1 POP JUMP JUMPDEST PUSH1 0x0 PUSH2 0x172D DUP3 PUSH2 0x16FF JUMP JUMPDEST SWAP2 POP DUP2 SWAP1 POP SWAP2 SWAP1 POP JUMP JUMPDEST PUSH32 0x42656E6566696369617279206261736520666565207472616E73616374696F6E PUSH1 0x0 DUP3 ADD MSTORE PUSH32 0x206661696C656421000000000000000000000000000000000000000000000000 PUSH1 0x20 DUP3 ADD MSTORE POP JUMP JUMPDEST PUSH1 0x0 PUSH2 0x1793 PUSH1 0x28 DUP4 PUSH2 0x1568 JUMP JUMPDEST SWAP2 POP PUSH2 0x179E DUP3 PUSH2 0x1737 JUMP JUMPDEST PUSH1 0x40 DUP3 ADD SWAP1 POP SWAP2 SWAP1 POP JUMP JUMPDEST PUSH1 0x0 PUSH1 0x20 DUP3 ADD SWAP1 POP DUP2 DUP2 SUB PUSH1 0x0 DUP4 ADD MSTORE PUSH2 0x17C2 DUP2 PUSH2 0x1786 JUMP JUMPDEST SWAP1 POP SWAP2 SWAP1 POP JUMP JUMPDEST PUSH32 0x4465706C6F79657220696E746572657374207472616E73616374696F6E206661 PUSH1 0x0 DUP3 ADD MSTORE PUSH32 0x696C656421000000000000000000000000000000000000000000000000000000 PUSH1 0x20 DUP3 ADD MSTORE POP JUMP JUMPDEST PUSH1 0x0 PUSH2 0x1825 PUSH1 0x25 DUP4 PUSH2 0x1568 JUMP JUMPDEST SWAP2 POP PUSH2 0x1830 DUP3 PUSH2 0x17C9 JUMP JUMPDEST PUSH1 0x40 DUP3 ADD SWAP1 POP SWAP2 SWAP1 POP JUMP JUMPDEST PUSH1 0x0 PUSH1 0x20 DUP3 ADD SWAP1 POP DUP2 DUP2 SUB PUSH1 0x0 DUP4 ADD MSTORE PUSH2 0x1854 DUP2 PUSH2 0x1818 JUMP JUMPDEST SWAP1 POP SWAP2 SWAP1 POP JUMP JUMPDEST PUSH32 0x596F752772206E6F7420746865206465706C6F79657221000000000000000000 PUSH1 0x0 DUP3 ADD MSTORE POP JUMP JUMPDEST PUSH1 0x0 PUSH2 0x1891 PUSH1 0x17 DUP4 PUSH2 0x1568 JUMP JUMPDEST SWAP2 POP PUSH2 0x189C DUP3 PUSH2 0x185B JUMP JUMPDEST PUSH1 0x20 DUP3 ADD SWAP1 POP SWAP2 SWAP1 POP JUMP JUMPDEST PUSH1 0x0 PUSH1 0x20 DUP3 ADD SWAP1 POP DUP2 DUP2 SUB PUSH1 0x0 DUP4 ADD MSTORE PUSH2 0x18C0 DUP2 PUSH2 0x1884 JUMP JUMPDEST SWAP1 POP SWAP2 SWAP1 POP JUMP JUMPDEST PUSH32 0x596F75206E65656420746F207374616B65206574682100000000000000000000 PUSH1 0x0 DUP3 ADD MSTORE POP JUMP JUMPDEST PUSH1 0x0 PUSH2 0x18FD PUSH1 0x16 DUP4 PUSH2 0x1568 JUMP JUMPDEST SWAP2 POP PUSH2 0x1908 DUP3 PUSH2 0x18C7 JUMP JUMPDEST PUSH1 0x20 DUP3 ADD SWAP1 POP SWAP2 SWAP1 POP JUMP JUMPDEST PUSH1 0x0 PUSH1 0x20 DUP3 ADD SWAP1 POP DUP2 DUP2 SUB PUSH1 0x0 DUP4 ADD MSTORE PUSH2 0x192C DUP2 PUSH2 0x18F0 JUMP JUMPDEST SWAP1 POP SWAP2 SWAP1 POP JUMP JUMPDEST PUSH1 0x0 DUP2 MLOAD SWAP1 POP SWAP2 SWAP1 POP JUMP JUMPDEST PUSH1 0x0 JUMPDEST DUP4 DUP2 LT ISZERO PUSH2 0x195C JUMPI DUP1 DUP3 ADD MLOAD DUP2 DUP5 ADD MSTORE PUSH1 0x20 DUP2 ADD SWAP1 POP PUSH2 0x1941 JUMP JUMPDEST PUSH1 0x0 DUP5 DUP5 ADD MSTORE POP POP POP POP JUMP JUMPDEST PUSH1 0x0 PUSH1 0x1F NOT PUSH1 0x1F DUP4 ADD AND SWAP1 POP SWAP2 SWAP1 POP JUMP JUMPDEST PUSH1 0x0 PUSH2 0x1984 DUP3 PUSH2 0x1933 JUMP JUMPDEST PUSH2 0x198E DUP2 DUP6 PUSH2 0x1568 JUMP JUMPDEST SWAP4 POP PUSH2 0x199E DUP2 DUP6 PUSH1 0x20 DUP7 ADD PUSH2 0x193E JUMP JUMPDEST PUSH2 0x19A7 DUP2 PUSH2 0x1968 JUMP JUMPDEST DUP5 ADD SWAP2 POP POP SWAP3 SWAP2 POP POP JUMP JUMPDEST PUSH1 0x0 PUSH1 0x40 DUP3 ADD SWAP1 POP DUP2 DUP2 SUB PUSH1 0x0 DUP4 ADD MSTORE PUSH2 0x19CC DUP2 DUP6 PUSH2 0x1979 JUMP JUMPDEST SWAP1 POP PUSH2 0x19DB PUSH1 0x20 DUP4 ADD DUP5 PUSH2 0x1240 JUMP JUMPDEST SWAP4 SWAP3 POP POP POP JUMP INVALID PUSH1 0x80 PUSH1 0x40 MSTORE CALLVALUE DUP1 ISZERO PUSH2 0x10 JUMPI PUSH1 0x0 DUP1 REVERT JUMPDEST POP PUSH2 0x645 DUP1 PUSH2 0x20 PUSH1 0x0 CODECOPY PUSH1 0x0 RETURN INVALID PUSH1 0x80 PUSH1 0x40 MSTORE CALLVALUE DUP1 ISZERO PUSH2 0x10 JUMPI PUSH1 0x0 DUP1 REVERT JUMPDEST POP PUSH1 0x4 CALLDATASIZE LT PUSH2 0x36 JUMPI PUSH1 0x0 CALLDATALOAD PUSH1 0xE0 SHR DUP1 PUSH4 0x60614CB EQ PUSH2 0x3B JUMPI DUP1 PUSH4 0xDE251FB6 EQ PUSH2 0x6B JUMPI JUMPDEST PUSH1 0x0 DUP1 REVERT JUMPDEST PUSH2 0x55 PUSH1 0x4 DUP1 CALLDATASIZE SUB DUP2 ADD SWAP1 PUSH2 0x50 SWAP2 SWAP1 PUSH2 0x346 JUMP JUMPDEST PUSH2 0x9B JUMP JUMPDEST PUSH1 0x40 MLOAD PUSH2 0x62 SWAP2 SWAP1 PUSH2 0x382 JUMP JUMPDEST PUSH1 0x40 MLOAD DUP1 SWAP2 SUB SWAP1 RETURN JUMPDEST PUSH2 0x85 PUSH1 0x4 DUP1 CALLDATASIZE SUB DUP2 ADD SWAP1 PUSH2 0x80 SWAP2 SWAP1 PUSH2 0x39D JUMP JUMPDEST PUSH2 0xDB JUMP JUMPDEST PUSH1 0x40 MLOAD PUSH2 0x92 SWAP2 SWAP1 PUSH2 0x382 JUMP JUMPDEST PUSH1 0x40 MLOAD DUP1 SWAP2 SUB SWAP1 RETURN JUMPDEST PUSH1 0x0 PUSH2 0xD4 PUSH2 0xB1 PUSH8 0xDE0B6B3A7640000 PUSH2 0xF9 JUMP JUMPDEST PUSH2 0xCF PUSH2 0xBD DUP6 PUSH2 0xF9 JUMP JUMPDEST PUSH2 0xCA PUSH4 0x1E13380 PUSH2 0x110 JUMP JUMPDEST PUSH2 0x12F JUMP JUMPDEST PUSH2 0x16F JUMP JUMPDEST SWAP1 POP SWAP2 SWAP1 POP JUMP JUMPDEST PUSH1 0x0 PUSH2 0xF0 DUP5 PUSH2 0xEB DUP6 DUP6 PUSH2 0x1C8 JUMP JUMPDEST PUSH2 0x252 JUMP JUMPDEST SWAP1 POP SWAP4 SWAP3 POP POP POP JUMP JUMPDEST PUSH1 0x0 PUSH2 0x109 DUP3 PUSH4 0x3B9ACA00 PUSH2 0x29E JUMP JUMPDEST SWAP1 POP SWAP2 SWAP1 POP JUMP JUMPDEST PUSH1 0x0 PUSH2 0x128 DUP3 PUSH12 0x33B2E3C9FD0803CE8000000 PUSH2 0x29E JUMP JUMPDEST SWAP1 POP SWAP2 SWAP1 POP JUMP JUMPDEST PUSH1 0x0 DUP2 PUSH2 0x15D PUSH2 0x14B DUP6 PUSH12 0x33B2E3C9FD0803CE8000000 PUSH2 0x29E JUMP JUMPDEST PUSH1 0x2 DUP6 PUSH2 0x158 SWAP2 SWAP1 PUSH2 0x44E JUMP JUMPDEST PUSH2 0x16F JUMP JUMPDEST PUSH2 0x167 SWAP2 SWAP1 PUSH2 0x44E JUMP JUMPDEST SWAP1 POP SWAP3 SWAP2 POP POP JUMP JUMPDEST PUSH1 0x0 DUP3 DUP3 DUP5 PUSH2 0x17E SWAP2 SWAP1 PUSH2 0x47F JUMP JUMPDEST SWAP2 POP DUP2 LT ISZERO PUSH2 0x1C2 JUMPI PUSH1 0x40 MLOAD PUSH32 0x8C379A000000000000000000000000000000000000000000000000000000000 DUP2 MSTORE PUSH1 0x4 ADD PUSH2 0x1B9 SWAP1 PUSH2 0x510 JUMP JUMPDEST PUSH1 0x40 MLOAD DUP1 SWAP2 SUB SWAP1 REVERT JUMPDEST SWAP3 SWAP2 POP POP JUMP JUMPDEST PUSH1 0x0 DUP1 PUSH1 0x2 DUP4 PUSH2 0x1D8 SWAP2 SWAP1 PUSH2 0x530 JUMP JUMPDEST SUB PUSH2 0x1EF JUMPI PUSH12 0x33B2E3C9FD0803CE8000000 PUSH2 0x1F1 JUMP JUMPDEST DUP3 JUMPDEST SWAP1 POP PUSH1 0x2 DUP3 PUSH2 0x200 SWAP2 SWAP1 PUSH2 0x44E JUMP JUMPDEST SWAP2 POP JUMPDEST PUSH1 0x0 DUP3 EQ PUSH2 0x24C JUMPI PUSH2 0x215 DUP4 DUP5 PUSH2 0x252 JUMP JUMPDEST SWAP3 POP PUSH1 0x0 PUSH1 0x2 DUP4 PUSH2 0x226 SWAP2 SWAP1 PUSH2 0x530 JUMP JUMPDEST EQ PUSH2 0x238 JUMPI PUSH2 0x235 DUP2 DUP5 PUSH2 0x252 JUMP JUMPDEST SWAP1 POP JUMPDEST PUSH1 0x2 DUP3 PUSH2 0x245 SWAP2 SWAP1 PUSH2 0x44E JUMP JUMPDEST SWAP2 POP PUSH2 0x203 JUMP JUMPDEST SWAP3 SWAP2 POP POP JUMP JUMPDEST PUSH1 0x0 PUSH12 0x33B2E3C9FD0803CE8000000 PUSH2 0x28C PUSH2 0x26E DUP6 DUP6 PUSH2 0x29E JUMP JUMPDEST PUSH1 0x2 PUSH12 0x33B2E3C9FD0803CE8000000 PUSH2 0x287 SWAP2 SWAP1 PUSH2 0x44E JUMP JUMPDEST PUSH2 0x16F JUMP JUMPDEST PUSH2 0x296 SWAP2 SWAP1 PUSH2 0x44E JUMP JUMPDEST SWAP1 POP SWAP3 SWAP2 POP POP JUMP JUMPDEST PUSH1 0x0 DUP1 DUP3 EQ DUP1 PUSH2 0x2C6 JUMPI POP DUP3 DUP3 DUP4 DUP6 PUSH2 0x2B7 SWAP2 SWAP1 PUSH2 0x561 JUMP JUMPDEST SWAP3 POP DUP3 PUSH2 0x2C4 SWAP2 SWAP1 PUSH2 0x44E JUMP JUMPDEST EQ JUMPDEST PUSH2 0x305 JUMPI PUSH1 0x40 MLOAD PUSH32 0x8C379A000000000000000000000000000000000000000000000000000000000 DUP2 MSTORE PUSH1 0x4 ADD PUSH2 0x2FC SWAP1 PUSH2 0x5EF JUMP JUMPDEST PUSH1 0x40 MLOAD DUP1 SWAP2 SUB SWAP1 REVERT JUMPDEST SWAP3 SWAP2 POP POP JUMP JUMPDEST PUSH1 0x0 DUP1 REVERT JUMPDEST PUSH1 0x0 DUP2 SWAP1 POP SWAP2 SWAP1 POP JUMP JUMPDEST PUSH2 0x323 DUP2 PUSH2 0x310 JUMP JUMPDEST DUP2 EQ PUSH2 0x32E JUMPI PUSH1 0x0 DUP1 REVERT JUMPDEST POP JUMP JUMPDEST PUSH1 0x0 DUP2 CALLDATALOAD SWAP1 POP PUSH2 0x340 DUP2 PUSH2 0x31A JUMP JUMPDEST SWAP3 SWAP2 POP POP JUMP JUMPDEST PUSH1 0x0 PUSH1 0x20 DUP3 DUP5 SUB SLT ISZERO PUSH2 0x35C JUMPI PUSH2 0x35B PUSH2 0x30B JUMP JUMPDEST JUMPDEST PUSH1 0x0 PUSH2 0x36A DUP5 DUP3 DUP6 ADD PUSH2 0x331 JUMP JUMPDEST SWAP2 POP POP SWAP3 SWAP2 POP POP JUMP JUMPDEST PUSH2 0x37C DUP2 PUSH2 0x310 JUMP JUMPDEST DUP3 MSTORE POP POP JUMP JUMPDEST PUSH1 0x0 PUSH1 0x20 DUP3 ADD SWAP1 POP PUSH2 0x397 PUSH1 0x0 DUP4 ADD DUP5 PUSH2 0x373 JUMP JUMPDEST SWAP3 SWAP2 POP POP JUMP JUMPDEST PUSH1 0x0 DUP1 PUSH1 0x0 PUSH1 0x60 DUP5 DUP7 SUB SLT ISZERO PUSH2 0x3B6 JUMPI PUSH2 0x3B5 PUSH2 0x30B JUMP JUMPDEST JUMPDEST PUSH1 0x0 PUSH2 0x3C4 DUP7 DUP3 DUP8 ADD PUSH2 0x331 JUMP JUMPDEST SWAP4 POP POP PUSH1 0x20 PUSH2 0x3D5 DUP7 DUP3 DUP8 ADD PUSH2 0x331 JUMP JUMPDEST SWAP3 POP POP PUSH1 0x40 PUSH2 0x3E6 DUP7 DUP3 DUP8 ADD PUSH2 0x331 JUMP JUMPDEST SWAP2 POP POP SWAP3 POP SWAP3 POP SWAP3 JUMP JUMPDEST PUSH32 0x4E487B7100000000000000000000000000000000000000000000000000000000 PUSH1 0x0 MSTORE PUSH1 0x12 PUSH1 0x4 MSTORE PUSH1 0x24 PUSH1 0x0 REVERT JUMPDEST PUSH32 0x4E487B7100000000000000000000000000000000000000000000000000000000 PUSH1 0x0 MSTORE PUSH1 0x11 PUSH1 0x4 MSTORE PUSH1 0x24 PUSH1 0x0 REVERT JUMPDEST PUSH1 0x0 PUSH2 0x459 DUP3 PUSH2 0x310 JUMP JUMPDEST SWAP2 POP PUSH2 0x464 DUP4 PUSH2 0x310 JUMP JUMPDEST SWAP3 POP DUP3 PUSH2 0x474 JUMPI PUSH2 0x473 PUSH2 0x3F0 JUMP JUMPDEST JUMPDEST DUP3 DUP3 DIV SWAP1 POP SWAP3 SWAP2 POP POP JUMP JUMPDEST PUSH1 0x0 PUSH2 0x48A DUP3 PUSH2 0x310 JUMP JUMPDEST SWAP2 POP PUSH2 0x495 DUP4 PUSH2 0x310 JUMP JUMPDEST SWAP3 POP DUP3 DUP3 ADD SWAP1 POP DUP1 DUP3 GT ISZERO PUSH2 0x4AD JUMPI PUSH2 0x4AC PUSH2 0x41F JUMP JUMPDEST JUMPDEST SWAP3 SWAP2 POP POP JUMP JUMPDEST PUSH1 0x0 DUP3 DUP3 MSTORE PUSH1 0x20 DUP3 ADD SWAP1 POP SWAP3 SWAP2 POP POP JUMP JUMPDEST PUSH32 0x64732D6D6174682D6164642D6F766572666C6F77000000000000000000000000 PUSH1 0x0 DUP3 ADD MSTORE POP JUMP JUMPDEST PUSH1 0x0 PUSH2 0x4FA PUSH1 0x14 DUP4 PUSH2 0x4B3 JUMP JUMPDEST SWAP2 POP PUSH2 0x505 DUP3 PUSH2 0x4C4 JUMP JUMPDEST PUSH1 0x20 DUP3 ADD SWAP1 POP SWAP2 SWAP1 POP JUMP JUMPDEST PUSH1 0x0 PUSH1 0x20 DUP3 ADD SWAP1 POP DUP2 DUP2 SUB PUSH1 0x0 DUP4 ADD MSTORE PUSH2 0x529 DUP2 PUSH2 0x4ED JUMP JUMPDEST SWAP1 POP SWAP2 SWAP1 POP JUMP JUMPDEST PUSH1 0x0 PUSH2 0x53B DUP3 PUSH2 0x310 JUMP JUMPDEST SWAP2 POP PUSH2 0x546 DUP4 PUSH2 0x310 JUMP JUMPDEST SWAP3 POP DUP3 PUSH2 0x556 JUMPI PUSH2 0x555 PUSH2 0x3F0 JUMP JUMPDEST JUMPDEST DUP3 DUP3 MOD SWAP1 POP SWAP3 SWAP2 POP POP JUMP JUMPDEST PUSH1 0x0 PUSH2 0x56C DUP3 PUSH2 0x310 JUMP JUMPDEST SWAP2 POP PUSH2 0x577 DUP4 PUSH2 0x310 JUMP JUMPDEST SWAP3 POP DUP3 DUP3 MUL PUSH2 0x585 DUP2 PUSH2 0x310 JUMP JUMPDEST SWAP2 POP DUP3 DUP3 DIV DUP5 EQ DUP4 ISZERO OR PUSH2 0x59C JUMPI PUSH2 0x59B PUSH2 0x41F JUMP JUMPDEST JUMPDEST POP SWAP3 SWAP2 POP POP JUMP JUMPDEST PUSH32 0x64732D6D6174682D6D756C2D6F766572666C6F77000000000000000000000000 PUSH1 0x0 DUP3 ADD MSTORE POP JUMP JUMPDEST PUSH1 0x0 PUSH2 0x5D9 PUSH1 0x14 DUP4 PUSH2 0x4B3 JUMP JUMPDEST SWAP2 POP PUSH2 0x5E4 DUP3 PUSH2 0x5A3 JUMP JUMPDEST PUSH1 0x20 DUP3 ADD SWAP1 POP SWAP2 SWAP1 POP JUMP JUMPDEST PUSH1 0x0 PUSH1 0x20 DUP3 ADD SWAP1 POP DUP2 DUP2 SUB PUSH1 0x0 DUP4 ADD MSTORE PUSH2 0x608 DUP2 PUSH2 0x5CC JUMP JUMPDEST SWAP1 POP SWAP2 SWAP1 POP JUMP INVALID LOG2 PUSH5 0x6970667358 0x22 SLT KECCAK256 DUP13 CREATE PUSH20 0x69043E1F9546F616DEC2283F9F1DCCDE60C54AD9 DUP3 SSTORE GAS EXP SELFBALANCE DELEGATECALL 0x27 0xD5 DUP15 PUSH5 0x736F6C6343 STOP ADDMOD GT STOP CALLER LOG2 PUSH5 0x6970667358 0x22 SLT KECCAK256 PC LT DUP13 EXTCODESIZE LOG2 0xDF SWAP2 SLOAD PUSH13 0x4E3A058C11B7DA13921D24BF23 DUP7 0x2A 0xD2 0xA6 0x4D PUSH4 0xD15DBE7A PUSH5 0x736F6C6343 STOP ADDMOD GT STOP CALLER "},"methodIdentifiers":{"CalculateInterest(address)":"2acba4ab","ContrctdepositTimestamps(address)":"5f88746c","InterestSet(address)":"30853c62","balances(address)":"27e235e3","checkInterestMapping()":"4bbf9037","checkInterestValue(address)":"a205b12f","checkdepositTimestamps()":"3ad0bc06","claimFor3Month()":"cc170c94","contractBalances(address)":"620b7cb3","escrowTx(address,address)":"93386718","ethStake(address,address,address,bool)":"5a6a18e1","interestValue(address)":"6438645b","withDrawal(address,address)":"3a420c1d"}}}}}