{
  "_format": "hh-sol-artifact-1",
  "contractName": "Interest",
  "sourceName": "lib/Interest.sol",
  "abi": [
    {
      "inputs": [
        {
          "internalType": "uint256",
          "name": "_principal",
          "type": "uint256"
        },
        {
          "internalType": "uint256",
          "name": "_rate",
          "type": "uint256"
        },
        {
          "internalType": "uint256",
          "name": "_age",
          "type": "uint256"
        }
      ],
      "name": "accrueInterest",
      "outputs": [
        {
          "internalType": "uint256",
          "name": "",
          "type": "uint256"
        }
      ],
      "stateMutability": "pure",
      "type": "function"
    },
    {
      "inputs": [
        {
          "internalType": "uint256",
          "name": "_rateWad",
          "type": "uint256"
        }
      ],
      "name": "yearlyRateToRay",
      "outputs": [
        {
          "internalType": "uint256",
          "name": "",
          "type": "uint256"
        }
      ],
      "stateMutability": "pure",
      "type": "function"
    }
  ],
  "bytecode": "0x608060405234801561001057600080fd5b50610645806100206000396000f3fe608060405234801561001057600080fd5b50600436106100365760003560e01c8063060614cb1461003b578063de251fb61461006b575b600080fd5b61005560048036038101906100509190610346565b61009b565b6040516100629190610382565b60405180910390f35b6100856004803603810190610080919061039d565b6100db565b6040516100929190610382565b60405180910390f35b60006100d46100b1670de0b6b3a76400006100f9565b6100cf6100bd856100f9565b6100ca6301e13380610110565b61012f565b61016f565b9050919050565b60006100f0846100eb85856101c8565b610252565b90509392505050565b600061010982633b9aca0061029e565b9050919050565b6000610128826b033b2e3c9fd0803ce800000061029e565b9050919050565b60008161015d61014b856b033b2e3c9fd0803ce800000061029e565b600285610158919061044e565b61016f565b610167919061044e565b905092915050565b600082828461017e919061047f565b91508110156101c2576040517f08c379a00000000000000000000000000000000000000000000000000000000081526004016101b990610510565b60405180910390fd5b92915050565b6000806002836101d89190610530565b036101ef576b033b2e3c9fd0803ce80000006101f1565b825b9050600282610200919061044e565b91505b6000821461024c576102158384610252565b925060006002836102269190610530565b14610238576102358184610252565b90505b600282610245919061044e565b9150610203565b92915050565b60006b033b2e3c9fd0803ce800000061028c61026e858561029e565b60026b033b2e3c9fd0803ce8000000610287919061044e565b61016f565b610296919061044e565b905092915050565b6000808214806102c65750828283856102b79190610561565b9250826102c4919061044e565b145b610305576040517f08c379a00000000000000000000000000000000000000000000000000000000081526004016102fc906105ef565b60405180910390fd5b92915050565b600080fd5b6000819050919050565b61032381610310565b811461032e57600080fd5b50565b6000813590506103408161031a565b92915050565b60006020828403121561035c5761035b61030b565b5b600061036a84828501610331565b91505092915050565b61037c81610310565b82525050565b60006020820190506103976000830184610373565b92915050565b6000806000606084860312156103b6576103b561030b565b5b60006103c486828701610331565b93505060206103d586828701610331565b92505060406103e686828701610331565b9150509250925092565b7f4e487b7100000000000000000000000000000000000000000000000000000000600052601260045260246000fd5b7f4e487b7100000000000000000000000000000000000000000000000000000000600052601160045260246000fd5b600061045982610310565b915061046483610310565b925082610474576104736103f0565b5b828204905092915050565b600061048a82610310565b915061049583610310565b92508282019050808211156104ad576104ac61041f565b5b92915050565b600082825260208201905092915050565b7f64732d6d6174682d6164642d6f766572666c6f77000000000000000000000000600082015250565b60006104fa6014836104b3565b9150610505826104c4565b602082019050919050565b60006020820190508181036000830152610529816104ed565b9050919050565b600061053b82610310565b915061054683610310565b925082610556576105556103f0565b5b828206905092915050565b600061056c82610310565b915061057783610310565b925082820261058581610310565b9150828204841483151761059c5761059b61041f565b5b5092915050565b7f64732d6d6174682d6d756c2d6f766572666c6f77000000000000000000000000600082015250565b60006105d96014836104b3565b91506105e4826105a3565b602082019050919050565b60006020820190508181036000830152610608816105cc565b905091905056fea26469706673582212208cf07369043e1f9546f616dec2283f9f1dccde60c54ad982555a0a47f427d58e64736f6c63430008110033",
  "linkReferences": {},
  "deployedLinkReferences": {}
}