{
  "_format": "hh-sol-artifact-1",
  "contractName": "Staker",
  "sourceName": "contracts/Staker.sol",
  "abi": [
    {
      "anonymous": false,
      "inputs": [
        {
          "indexed": false,
          "internalType": "address",
          "name": "",
          "type": "address"
        },
        {
          "indexed": false,
          "internalType": "uint256",
          "name": "",
          "type": "uint256"
        }
      ],
      "name": "Received",
      "type": "event"
    },
    {
      "anonymous": false,
      "inputs": [
        {
          "indexed": true,
          "internalType": "address",
          "name": "sender",
          "type": "address"
        },
        {
          "indexed": false,
          "internalType": "uint256",
          "name": "amount",
          "type": "uint256"
        }
      ],
      "name": "Stake",
      "type": "event"
    },
    {
      "inputs": [
        {
          "internalType": "address",
          "name": "_depositor",
          "type": "address"
        }
      ],
      "name": "CalculateInterest",
      "outputs": [
        {
          "internalType": "uint256",
          "name": "",
          "type": "uint256"
        }
      ],
      "stateMutability": "nonpayable",
      "type": "function"
    },
    {
      "inputs": [
        {
          "internalType": "address",
          "name": "",
          "type": "address"
        }
      ],
      "name": "ContrctdepositTimestamps",
      "outputs": [
        {
          "internalType": "uint256",
          "name": "",
          "type": "uint256"
        }
      ],
      "stateMutability": "view",
      "type": "function"
    },
    {
      "inputs": [
        {
          "internalType": "address",
          "name": "",
          "type": "address"
        }
      ],
      "name": "InterestSet",
      "outputs": [
        {
          "internalType": "bool",
          "name": "",
          "type": "bool"
        }
      ],
      "stateMutability": "view",
      "type": "function"
    },
    {
      "inputs": [
        {
          "internalType": "address",
          "name": "",
          "type": "address"
        }
      ],
      "name": "balances",
      "outputs": [
        {
          "internalType": "uint256",
          "name": "",
          "type": "uint256"
        }
      ],
      "stateMutability": "view",
      "type": "function"
    },
    {
      "inputs": [],
      "name": "checkInterestMapping",
      "outputs": [
        {
          "internalType": "bool",
          "name": "",
          "type": "bool"
        }
      ],
      "stateMutability": "view",
      "type": "function"
    },
    {
      "inputs": [
        {
          "internalType": "address",
          "name": "_depositor",
          "type": "address"
        }
      ],
      "name": "checkInterestValue",
      "outputs": [
        {
          "internalType": "uint256",
          "name": "",
          "type": "uint256"
        }
      ],
      "stateMutability": "view",
      "type": "function"
    },
    {
      "inputs": [],
      "name": "checkdepositTimestamps",
      "outputs": [
        {
          "internalType": "uint256",
          "name": "",
          "type": "uint256"
        }
      ],
      "stateMutability": "view",
      "type": "function"
    },
    {
      "inputs": [],
      "name": "claimFor3Month",
      "outputs": [
        {
          "internalType": "uint256",
          "name": "",
          "type": "uint256"
        }
      ],
      "stateMutability": "view",
      "type": "function"
    },
    {
      "inputs": [
        {
          "internalType": "address",
          "name": "",
          "type": "address"
        }
      ],
      "name": "contractBalances",
      "outputs": [
        {
          "internalType": "uint256",
          "name": "",
          "type": "uint256"
        }
      ],
      "stateMutability": "view",
      "type": "function"
    },
    {
      "inputs": [
        {
          "internalType": "address",
          "name": "",
          "type": "address"
        },
        {
          "internalType": "address",
          "name": "",
          "type": "address"
        }
      ],
      "name": "escrowTx",
      "outputs": [
        {
          "internalType": "address",
          "name": "",
          "type": "address"
        }
      ],
      "stateMutability": "view",
      "type": "function"
    },
    {
      "inputs": [
        {
          "internalType": "address",
          "name": "_depositor",
          "type": "address"
        },
        {
          "internalType": "address",
          "name": "_arbiter",
          "type": "address"
        },
        {
          "internalType": "address",
          "name": "_beneficiary",
          "type": "address"
        },
        {
          "internalType": "bool",
          "name": "_isWithinterest",
          "type": "bool"
        }
      ],
      "name": "ethStake",
      "outputs": [
        {
          "internalType": "bool",
          "name": "",
          "type": "bool"
        }
      ],
      "stateMutability": "payable",
      "type": "function"
    },
    {
      "inputs": [
        {
          "internalType": "address",
          "name": "",
          "type": "address"
        }
      ],
      "name": "interestValue",
      "outputs": [
        {
          "internalType": "uint256",
          "name": "",
          "type": "uint256"
        }
      ],
      "stateMutability": "view",
      "type": "function"
    },
    {
      "inputs": [
        {
          "internalType": "address",
          "name": "_depositor",
          "type": "address"
        },
        {
          "internalType": "address",
          "name": "_arbiter",
          "type": "address"
        }
      ],
      "name": "withDrawal",
      "outputs": [],
      "stateMutability": "nonpayable",
      "type": "function"
    },
    {
      "stateMutability": "payable",
      "type": "receive"
    }
  ],
  "bytecode": "0x6080604052626ebe0060065534801561001757600080fd5b5061207d806100276000396000f3fe6080604052600436106100c65760003560e01c80635a6a18e11161007f5780636438645b116100595780636438645b146102eb5780639338671814610328578063a205b12f14610365578063cc170c94146103a257610106565b80635a6a18e1146102415780635f88746c14610271578063620b7cb3146102ae57610106565b806327e235e31461010b5780632acba4ab1461014857806330853c62146101855780633a420c1d146101c25780633ad0bc06146101eb5780634bbf90371461021657610106565b36610106577f88a5966d370b9919b20f3e2c13ff65706f196a4e32cc2c12bf57088f8852587433346040516100fc92919061124f565b60405180910390a1005b600080fd5b34801561011757600080fd5b50610132600480360381019061012d91906112a9565b6103cd565b60405161013f91906112d6565b60405180910390f35b34801561015457600080fd5b5061016f600480360381019061016a91906112a9565b6103e5565b60405161017c91906112d6565b60405180910390f35b34801561019157600080fd5b506101ac60048036038101906101a791906112a9565b61060f565b6040516101b9919061130c565b60405180910390f35b3480156101ce57600080fd5b506101e960048036038101906101e49190611327565b61062f565b005b3480156101f757600080fd5b50610200610ce1565b60405161020d91906112d6565b60405180910390f35b34801561022257600080fd5b5061022b610d28565b604051610238919061130c565b60405180910390f35b61025b60048036038101906102569190611393565b610e00565b604051610268919061130c565b60405180910390f35b34801561027d57600080fd5b50610298600480360381019061029391906112a9565b610f30565b6040516102a591906112d6565b60405180910390f35b3480156102ba57600080fd5b506102d560048036038101906102d091906112a9565b610f48565b6040516102e291906112d6565b60405180910390f35b3480156102f757600080fd5b50610312600480360381019061030d91906112a9565b610f60565b60405161031f91906112d6565b60405180910390f35b34801561033457600080fd5b5061034f600480360381019061034a9190611327565b610f78565b60405161035c91906113fa565b60405180910390f35b34801561037157600080fd5b5061038c600480360381019061038791906112a9565b610fba565b60405161039991906112d6565b60405180910390f35b3480156103ae57600080fd5b506103b7611003565b6040516103c491906112d6565b60405180910390f35b60046020528060005260406000206000915090505481565b6000806040516103f4906111e8565b604051809103906000f080158015610410573d6000803e3d6000fd5b5090506000600560003373ffffffffffffffffffffffffffffffffffffffff1673ffffffffffffffffffffffffffffffffffffffff16815260200190815260200160002054905060008273ffffffffffffffffffffffffffffffffffffffff1663060614cb670429d069189e00006040518263ffffffff1660e01b815260040161049a919061145a565b602060405180830381865afa1580156104b7573d6000803e3d6000fd5b505050506040513d601f19601f820116820180604052508101906104db91906114a1565b90506000600160003373ffffffffffffffffffffffffffffffffffffffff1673ffffffffffffffffffffffffffffffffffffffff168152602001908152602001600020544261052a91906114fd565b90508373ffffffffffffffffffffffffffffffffffffffff1663de251fb68484846040518463ffffffff1660e01b815260040161056993929190611531565b602060405180830381865afa158015610586573d6000803e3d6000fd5b505050506040513d601f19601f820116820180604052508101906105aa91906114a1565b600081905550826000546105be91906114fd565b600760008873ffffffffffffffffffffffffffffffffffffffff1673ffffffffffffffffffffffffffffffffffffffff16815260200190815260200160002081905550600054945050505050919050565b60026020528060005260406000206000915054906101000a900460ff1681565b3381600073ffffffffffffffffffffffffffffffffffffffff16600360008473ffffffffffffffffffffffffffffffffffffffff1673ffffffffffffffffffffffffffffffffffffffff16815260200190815260200160002060008373ffffffffffffffffffffffffffffffffffffffff1673ffffffffffffffffffffffffffffffffffffffff16815260200190815260200160002060009054906101000a900473ffffffffffffffffffffffffffffffffffffffff1673ffffffffffffffffffffffffffffffffffffffff160361073c576040517f08c379a0000000000000000000000000000000000000000000000000000000008152600401610733906115c5565b60405180910390fd5b6000600560003373ffffffffffffffffffffffffffffffffffffffff1673ffffffffffffffffffffffffffffffffffffffff16815260200190815260200160002054116107be576040517f08c379a00000000000000000000000000000000000000000000000000000000081526004016107b590611631565b60405180910390fd5b6000600560003373ffffffffffffffffffffffffffffffffffffffff1673ffffffffffffffffffffffffffffffffffffffff168152602001908152602001600020549050600260008673ffffffffffffffffffffffffffffffffffffffff1673ffffffffffffffffffffffffffffffffffffffff16815260200190815260200160002060009054906101000a900460ff1615610b8157600654600160003373ffffffffffffffffffffffffffffffffffffffff1673ffffffffffffffffffffffffffffffffffffffff168152602001908152602001600020546108a19190611651565b4210156108e3576040517f08c379a00000000000000000000000000000000000000000000000000000000081526004016108da906116d1565b60405180910390fd5b60006108ee866103e5565b90506000600560003373ffffffffffffffffffffffffffffffffffffffff1673ffffffffffffffffffffffffffffffffffffffff168152602001908152602001600020819055506000600360003373ffffffffffffffffffffffffffffffffffffffff1673ffffffffffffffffffffffffffffffffffffffff16815260200190815260200160002060008773ffffffffffffffffffffffffffffffffffffffff1673ffffffffffffffffffffffffffffffffffffffff16815260200190815260200160002060009054906101000a900473ffffffffffffffffffffffffffffffffffffffff1673ffffffffffffffffffffffffffffffffffffffff16836040516109f790611722565b60006040518083038185875af1925050503d8060008114610a34576040519150601f19603f3d011682016040523d82523d6000602084013e610a39565b606091505b5050905080610a7d576040517f08c379a0000000000000000000000000000000000000000000000000000000008152600401610a74906117a9565b60405180910390fd5b60008383610a8b91906114fd565b9050610acc6040518060400160405280600f81526020017f496e7465726573742076616c75653a000000000000000000000000000000000081525082611009565b60008873ffffffffffffffffffffffffffffffffffffffff1682604051610af290611722565b60006040518083038185875af1925050503d8060008114610b2f576040519150601f19603f3d011682016040523d82523d6000602084013e610b34565b606091505b5050905080610b78576040517f08c379a0000000000000000000000000000000000000000000000000000000008152600401610b6f9061183b565b60405180910390fd5b50505050610cda565b6000600560003373ffffffffffffffffffffffffffffffffffffffff1673ffffffffffffffffffffffffffffffffffffffff168152602001908152602001600020819055506000600360003373ffffffffffffffffffffffffffffffffffffffff1673ffffffffffffffffffffffffffffffffffffffff16815260200190815260200160002060008673ffffffffffffffffffffffffffffffffffffffff1673ffffffffffffffffffffffffffffffffffffffff16815260200190815260200160002060009054906101000a900473ffffffffffffffffffffffffffffffffffffffff1673ffffffffffffffffffffffffffffffffffffffff1682604051610c8890611722565b60006040518083038185875af1925050503d8060008114610cc5576040519150601f19603f3d011682016040523d82523d6000602084013e610cca565b606091505b5050905080610cd857600080fd5b505b5050505050565b6000600160003073ffffffffffffffffffffffffffffffffffffffff1673ffffffffffffffffffffffffffffffffffffffff16815260200190815260200160002054905090565b6000336000600160008373ffffffffffffffffffffffffffffffffffffffff1673ffffffffffffffffffffffffffffffffffffffff1681526020019081526020016000205403610dad576040517f08c379a0000000000000000000000000000000000000000000000000000000008152600401610da4906118a7565b60405180910390fd5b600260003373ffffffffffffffffffffffffffffffffffffffff1673ffffffffffffffffffffffffffffffffffffffff16815260200190815260200160002060009054906101000a900460ff1691505090565b6000803411610e44576040517f08c379a0000000000000000000000000000000000000000000000000000000008152600401610e3b90611913565b60405180910390fd5b42600160003373ffffffffffffffffffffffffffffffffffffffff1673ffffffffffffffffffffffffffffffffffffffff1681526020019081526020016000208190555034600460008773ffffffffffffffffffffffffffffffffffffffff1673ffffffffffffffffffffffffffffffffffffffff1681526020019081526020016000208190555034600560003373ffffffffffffffffffffffffffffffffffffffff1673ffffffffffffffffffffffffffffffffffffffff16815260200190815260200160002081905550610f1a84846110a5565b610f248583611164565b60019050949350505050565b60016020528060005260406000206000915090505481565b60056020528060005260406000206000915090505481565b60076020528060005260406000206000915090505481565b60036020528160005260406000206020528060005260406000206000915091509054906101000a900473ffffffffffffffffffffffffffffffffffffffff1681565b6000600760008373ffffffffffffffffffffffffffffffffffffffff1673ffffffffffffffffffffffffffffffffffffffff168152602001908152602001600020549050919050565b60065481565b6110a1828260405160240161101f9291906119b2565b6040516020818303038152906040527fb60e72cc000000000000000000000000000000000000000000000000000000007bffffffffffffffffffffffffffffffffffffffffffffffffffffffff19166020820180517bffffffffffffffffffffffffffffffffffffffffffffffffffffffff83818316178352505050506111bf565b5050565b80600360003373ffffffffffffffffffffffffffffffffffffffff1673ffffffffffffffffffffffffffffffffffffffff16815260200190815260200160002060008473ffffffffffffffffffffffffffffffffffffffff1673ffffffffffffffffffffffffffffffffffffffff16815260200190815260200160002060006101000a81548173ffffffffffffffffffffffffffffffffffffffff021916908373ffffffffffffffffffffffffffffffffffffffff1602179055505050565b80600260008473ffffffffffffffffffffffffffffffffffffffff1673ffffffffffffffffffffffffffffffffffffffff16815260200190815260200160002060006101000a81548160ff0219169083151502179055505050565b60008151905060006a636f6e736f6c652e6c6f679050602083016000808483855afa5050505050565b610665806119e383390190565b600073ffffffffffffffffffffffffffffffffffffffff82169050919050565b6000611220826111f5565b9050919050565b61123081611215565b82525050565b6000819050919050565b61124981611236565b82525050565b60006040820190506112646000830185611227565b6112716020830184611240565b9392505050565b600080fd5b61128681611215565b811461129157600080fd5b50565b6000813590506112a38161127d565b92915050565b6000602082840312156112bf576112be611278565b5b60006112cd84828501611294565b91505092915050565b60006020820190506112eb6000830184611240565b92915050565b60008115159050919050565b611306816112f1565b82525050565b600060208201905061132160008301846112fd565b92915050565b6000806040838503121561133e5761133d611278565b5b600061134c85828601611294565b925050602061135d85828601611294565b9150509250929050565b611370816112f1565b811461137b57600080fd5b50565b60008135905061138d81611367565b92915050565b600080600080608085870312156113ad576113ac611278565b5b60006113bb87828801611294565b94505060206113cc87828801611294565b93505060406113dd87828801611294565b92505060606113ee8782880161137e565b91505092959194509250565b600060208201905061140f6000830184611227565b92915050565b6000819050919050565b6000819050919050565b600061144461143f61143a84611415565b61141f565b611236565b9050919050565b61145481611429565b82525050565b600060208201905061146f600083018461144b565b92915050565b61147e81611236565b811461148957600080fd5b50565b60008151905061149b81611475565b92915050565b6000602082840312156114b7576114b6611278565b5b60006114c58482850161148c565b91505092915050565b7f4e487b7100000000000000000000000000000000000000000000000000000000600052601160045260246000fd5b600061150882611236565b915061151383611236565b925082820390508181111561152b5761152a6114ce565b5b92915050565b60006060820190506115466000830186611240565b6115536020830185611240565b6115606040830184611240565b949350505050565b600082825260208201905092915050565b7f596f752772206e6f742074686520617262697465722100000000000000000000600082015250565b60006115af601683611568565b91506115ba82611579565b602082019050919050565b600060208201905081810360008301526115de816115a2565b9050919050565b7f436f6e74726163742042616c616e636520697320302100000000000000000000600082015250565b600061161b601683611568565b9150611626826115e5565b602082019050919050565b6000602082019050818103600083015261164a8161160e565b9050919050565b600061165c82611236565b915061166783611236565b925082820190508082111561167f5761167e6114ce565b5b92915050565b7f436c61696d2074696d65206e6f74207265616368656420796574210000000000600082015250565b60006116bb601b83611568565b91506116c682611685565b602082019050919050565b600060208201905081810360008301526116ea816116ae565b9050919050565b600081905092915050565b50565b600061170c6000836116f1565b9150611717826116fc565b600082019050919050565b600061172d826116ff565b9150819050919050565b7f42656e6566696369617279206261736520666565207472616e73616374696f6e60008201527f206661696c656421000000000000000000000000000000000000000000000000602082015250565b6000611793602883611568565b915061179e82611737565b604082019050919050565b600060208201905081810360008301526117c281611786565b9050919050565b7f4465706c6f79657220696e746572657374207472616e73616374696f6e20666160008201527f696c656421000000000000000000000000000000000000000000000000000000602082015250565b6000611825602583611568565b9150611830826117c9565b604082019050919050565b6000602082019050818103600083015261185481611818565b9050919050565b7f596f752772206e6f7420746865206465706c6f79657221000000000000000000600082015250565b6000611891601783611568565b915061189c8261185b565b602082019050919050565b600060208201905081810360008301526118c081611884565b9050919050565b7f596f75206e65656420746f207374616b65206574682100000000000000000000600082015250565b60006118fd601683611568565b9150611908826118c7565b602082019050919050565b6000602082019050818103600083015261192c816118f0565b9050919050565b600081519050919050565b60005b8381101561195c578082015181840152602081019050611941565b60008484015250505050565b6000601f19601f8301169050919050565b600061198482611933565b61198e8185611568565b935061199e81856020860161193e565b6119a781611968565b840191505092915050565b600060408201905081810360008301526119cc8185611979565b90506119db6020830184611240565b939250505056fe608060405234801561001057600080fd5b50610645806100206000396000f3fe608060405234801561001057600080fd5b50600436106100365760003560e01c8063060614cb1461003b578063de251fb61461006b575b600080fd5b61005560048036038101906100509190610346565b61009b565b6040516100629190610382565b60405180910390f35b6100856004803603810190610080919061039d565b6100db565b6040516100929190610382565b60405180910390f35b60006100d46100b1670de0b6b3a76400006100f9565b6100cf6100bd856100f9565b6100ca6301e13380610110565b61012f565b61016f565b9050919050565b60006100f0846100eb85856101c8565b610252565b90509392505050565b600061010982633b9aca0061029e565b9050919050565b6000610128826b033b2e3c9fd0803ce800000061029e565b9050919050565b60008161015d61014b856b033b2e3c9fd0803ce800000061029e565b600285610158919061044e565b61016f565b610167919061044e565b905092915050565b600082828461017e919061047f565b91508110156101c2576040517f08c379a00000000000000000000000000000000000000000000000000000000081526004016101b990610510565b60405180910390fd5b92915050565b6000806002836101d89190610530565b036101ef576b033b2e3c9fd0803ce80000006101f1565b825b9050600282610200919061044e565b91505b6000821461024c576102158384610252565b925060006002836102269190610530565b14610238576102358184610252565b90505b600282610245919061044e565b9150610203565b92915050565b60006b033b2e3c9fd0803ce800000061028c61026e858561029e565b60026b033b2e3c9fd0803ce8000000610287919061044e565b61016f565b610296919061044e565b905092915050565b6000808214806102c65750828283856102b79190610561565b9250826102c4919061044e565b145b610305576040517f08c379a00000000000000000000000000000000000000000000000000000000081526004016102fc906105ef565b60405180910390fd5b92915050565b600080fd5b6000819050919050565b61032381610310565b811461032e57600080fd5b50565b6000813590506103408161031a565b92915050565b60006020828403121561035c5761035b61030b565b5b600061036a84828501610331565b91505092915050565b61037c81610310565b82525050565b60006020820190506103976000830184610373565b92915050565b6000806000606084860312156103b6576103b561030b565b5b60006103c486828701610331565b93505060206103d586828701610331565b92505060406103e686828701610331565b9150509250925092565b7f4e487b7100000000000000000000000000000000000000000000000000000000600052601260045260246000fd5b7f4e487b7100000000000000000000000000000000000000000000000000000000600052601160045260246000fd5b600061045982610310565b915061046483610310565b925082610474576104736103f0565b5b828204905092915050565b600061048a82610310565b915061049583610310565b92508282019050808211156104ad576104ac61041f565b5b92915050565b600082825260208201905092915050565b7f64732d6d6174682d6164642d6f766572666c6f77000000000000000000000000600082015250565b60006104fa6014836104b3565b9150610505826104c4565b602082019050919050565b60006020820190508181036000830152610529816104ed565b9050919050565b600061053b82610310565b915061054683610310565b925082610556576105556103f0565b5b828206905092915050565b600061056c82610310565b915061057783610310565b925082820261058581610310565b9150828204841483151761059c5761059b61041f565b5b5092915050565b7f64732d6d6174682d6d756c2d6f766572666c6f77000000000000000000000000600082015250565b60006105d96014836104b3565b91506105e4826105a3565b602082019050919050565b60006020820190508181036000830152610608816105cc565b905091905056fea26469706673582212208cf07369043e1f9546f616dec2283f9f1dccde60c54ad982555a0a47f427d58e64736f6c63430008110033a264697066735822122058108c3ba2df91546c4e3a058c11b7da13921d24bf23862ad2a64d63d15dbe7a64736f6c63430008110033",
  "linkReferences": {},
  "deployedLinkReferences": {}
}