{
  "_format": "hh-sol-artifact-1",
  "contractName": "Escrow",
  "sourceName": "contracts/Escrow.sol",
  "abi": [
    {
      "inputs": [
        {
          "internalType": "address",
          "name": "_arbiter",
          "type": "address"
        },
        {
          "internalType": "address",
          "name": "_beneficiary",
          "type": "address"
        },
        {
          "internalType": "bool",
          "name": "_withInterest",
          "type": "bool"
        },
        {
          "internalType": "address payable",
          "name": "_staker",
          "type": "address"
        }
      ],
      "stateMutability": "payable",
      "type": "constructor"
    },
    {
      "anonymous": false,
      "inputs": [
        {
          "indexed": false,
          "internalType": "uint256",
          "name": "",
          "type": "uint256"
        }
      ],
      "name": "Approved",
      "type": "event"
    },
    {
      "inputs": [],
      "name": "approve",
      "outputs": [],
      "stateMutability": "nonpayable",
      "type": "function"
    },
    {
      "inputs": [],
      "name": "arbiter",
      "outputs": [
        {
          "internalType": "address",
          "name": "",
          "type": "address"
        }
      ],
      "stateMutability": "view",
      "type": "function"
    },
    {
      "inputs": [],
      "name": "beneficiary",
      "outputs": [
        {
          "internalType": "address",
          "name": "",
          "type": "address"
        }
      ],
      "stateMutability": "view",
      "type": "function"
    },
    {
      "inputs": [],
      "name": "depositor",
      "outputs": [
        {
          "internalType": "address",
          "name": "",
          "type": "address"
        }
      ],
      "stateMutability": "view",
      "type": "function"
    },
    {
      "inputs": [],
      "name": "getInfo",
      "outputs": [
        {
          "internalType": "bool",
          "name": "",
          "type": "bool"
        }
      ],
      "stateMutability": "view",
      "type": "function"
    },
    {
      "inputs": [],
      "name": "isApproved",
      "outputs": [
        {
          "internalType": "bool",
          "name": "",
          "type": "bool"
        }
      ],
      "stateMutability": "view",
      "type": "function"
    },
    {
      "inputs": [],
      "name": "staker",
      "outputs": [
        {
          "internalType": "contract Staker",
          "name": "",
          "type": "address"
        }
      ],
      "stateMutability": "view",
      "type": "function"
    },
    {
      "inputs": [],
      "name": "stakerAddress",
      "outputs": [
        {
          "internalType": "address payable",
          "name": "",
          "type": "address"
        }
      ],
      "stateMutability": "view",
      "type": "function"
    }
  ],
  "bytecode": "0x608060405260405162000c4b38038062000c4b8339818101604052810190620000299190620003c0565b836000806101000a81548173ffffffffffffffffffffffffffffffffffffffff021916908373ffffffffffffffffffffffffffffffffffffffff16021790555082600160006101000a81548173ffffffffffffffffffffffffffffffffffffffff021916908373ffffffffffffffffffffffffffffffffffffffff16021790555033600260006101000a81548173ffffffffffffffffffffffffffffffffffffffff021916908373ffffffffffffffffffffffffffffffffffffffff1602179055503460048190555080600360006101000a81548173ffffffffffffffffffffffffffffffffffffffff021916908373ffffffffffffffffffffffffffffffffffffffff16021790555080600560016101000a81548173ffffffffffffffffffffffffffffffffffffffff021916908373ffffffffffffffffffffffffffffffffffffffff1602179055506000600560019054906101000a900473ffffffffffffffffffffffffffffffffffffffff1673ffffffffffffffffffffffffffffffffffffffff16635a6a18e134600260009054906101000a900473ffffffffffffffffffffffffffffffffffffffff1660008054906101000a900473ffffffffffffffffffffffffffffffffffffffff16600160009054906101000a900473ffffffffffffffffffffffffffffffffffffffff16886040518663ffffffff1660e01b81526004016200023e949392919062000454565b60206040518083038185885af11580156200025d573d6000803e3d6000fd5b50505050506040513d601f19601f82011682018060405250810190620002849190620004a1565b905080620002c9576040517f08c379a0000000000000000000000000000000000000000000000000000000008152600401620002c09062000534565b60405180910390fd5b505050505062000556565b600080fd5b600073ffffffffffffffffffffffffffffffffffffffff82169050919050565b60006200030682620002d9565b9050919050565b6200031881620002f9565b81146200032457600080fd5b50565b60008151905062000338816200030d565b92915050565b60008115159050919050565b62000355816200033e565b81146200036157600080fd5b50565b60008151905062000375816200034a565b92915050565b60006200038882620002d9565b9050919050565b6200039a816200037b565b8114620003a657600080fd5b50565b600081519050620003ba816200038f565b92915050565b60008060008060808587031215620003dd57620003dc620002d4565b5b6000620003ed8782880162000327565b9450506020620004008782880162000327565b9350506040620004138782880162000364565b92505060606200042687828801620003a9565b91505092959194509250565b6200043d81620002f9565b82525050565b6200044e816200033e565b82525050565b60006080820190506200046b600083018762000432565b6200047a602083018662000432565b62000489604083018562000432565b62000498606083018462000443565b95945050505050565b600060208284031215620004ba57620004b9620002d4565b5b6000620004ca8482850162000364565b91505092915050565b600082825260208201905092915050565b7f4661696c656420746f2073656e74210000000000000000000000000000000000600082015250565b60006200051c600f83620004d3565b91506200052982620004e4565b602082019050919050565b600060208201905081810360008301526200054f816200050d565b9050919050565b6106e580620005666000396000f3fe608060405234801561001057600080fd5b50600436106100885760003560e01c80635ebaf1db1161005b5780635ebaf1db146100f1578063c7c4ff461461010f578063d470316b1461012d578063fe25e00a1461014b57610088565b806312424e3f1461008d57806328f371aa1461009757806338af3eed146100b55780635a9b0b89146100d3575b600080fd5b610095610169565b005b61009f610381565b6040516100ac9190610482565b60405180910390f35b6100bd610394565b6040516100ca91906104de565b60405180910390f35b6100db6103ba565b6040516100e89190610482565b60405180910390f35b6100f96103d1565b6040516101069190610558565b60405180910390f35b6101176103f7565b60405161012491906104de565b60405180910390f35b61013561041d565b6040516101429190610594565b60405180910390f35b610153610443565b60405161016091906104de565b60405180910390f35b60008054906101000a900473ffffffffffffffffffffffffffffffffffffffff1673ffffffffffffffffffffffffffffffffffffffff163373ffffffffffffffffffffffffffffffffffffffff16146101f7576040517f08c379a00000000000000000000000000000000000000000000000000000000081526004016101ee90610632565b60405180910390fd5b6001600560006101000a81548160ff021916908315150217905550600360009054906101000a900473ffffffffffffffffffffffffffffffffffffffff16600560016101000a81548173ffffffffffffffffffffffffffffffffffffffff021916908373ffffffffffffffffffffffffffffffffffffffff160217905550600560019054906101000a900473ffffffffffffffffffffffffffffffffffffffff1673ffffffffffffffffffffffffffffffffffffffff16633a420c1d600260009054906101000a900473ffffffffffffffffffffffffffffffffffffffff1660008054906101000a900473ffffffffffffffffffffffffffffffffffffffff166040518363ffffffff1660e01b8152600401610314929190610652565b600060405180830381600087803b15801561032e57600080fd5b505af1158015610342573d6000803e3d6000fd5b505050507f3ad93af63cb7967b23e4fb500b7d7d28b07516325dcf341f88bebf959d82c1cb6004546040516103779190610694565b60405180910390a1565b600560009054906101000a900460ff1681565b600160009054906101000a900473ffffffffffffffffffffffffffffffffffffffff1681565b6000600560009054906101000a900460ff16905090565b600560019054906101000a900473ffffffffffffffffffffffffffffffffffffffff1681565b600260009054906101000a900473ffffffffffffffffffffffffffffffffffffffff1681565b600360009054906101000a900473ffffffffffffffffffffffffffffffffffffffff1681565b60008054906101000a900473ffffffffffffffffffffffffffffffffffffffff1681565b60008115159050919050565b61047c81610467565b82525050565b60006020820190506104976000830184610473565b92915050565b600073ffffffffffffffffffffffffffffffffffffffff82169050919050565b60006104c88261049d565b9050919050565b6104d8816104bd565b82525050565b60006020820190506104f360008301846104cf565b92915050565b6000819050919050565b600061051e6105196105148461049d565b6104f9565b61049d565b9050919050565b600061053082610503565b9050919050565b600061054282610525565b9050919050565b61055281610537565b82525050565b600060208201905061056d6000830184610549565b92915050565b600061057e8261049d565b9050919050565b61058e81610573565b82525050565b60006020820190506105a96000830184610585565b92915050565b600082825260208201905092915050565b7f596f75277265206e6f7420617574686f72697a656420746f20617070726f766560008201527f2121000000000000000000000000000000000000000000000000000000000000602082015250565b600061061c6022836105af565b9150610627826105c0565b604082019050919050565b6000602082019050818103600083015261064b8161060f565b9050919050565b600060408201905061066760008301856104cf565b61067460208301846104cf565b9392505050565b6000819050919050565b61068e8161067b565b82525050565b60006020820190506106a96000830184610685565b9291505056fea26469706673582212202d1babfe3e6ce770b125b02c66faa060126c1e53c8138fff1f2dbaf8fb57320f64736f6c63430008110033",
  "linkReferences": {},
  "deployedLinkReferences": {}
}